{
  "_format": "hh3-artifact-1",
  "contractName": "Game2048",
  "sourceName": "contracts/Game2048.sol",
  "abi": [
    {
      "inputs": [],
      "stateMutability": "nonpayable",
      "type": "constructor"
    },
    {
      "inputs": [
        {
          "internalType": "address",
          "name": "target",
          "type": "address"
        }
      ],
      "name": "AddressEmptyCode",
      "type": "error"
    },
    {
      "inputs": [
        {
          "internalType": "address",
          "name": "implementation",
          "type": "address"
        }
      ],
      "name": "ERC1967InvalidImplementation",
      "type": "error"
    },
    {
      "inputs": [],
      "name": "ERC1967NonPayable",
      "type": "error"
    },
    {
      "inputs": [],
      "name": "FailedCall",
      "type": "error"
    },
    {
      "inputs": [],
      "name": "InvalidBoostMultiplier",
      "type": "error"
    },
    {
      "inputs": [],
      "name": "InvalidComboCount",
      "type": "error"
    },
    {
      "inputs": [],
      "name": "InvalidInitialization",
      "type": "error"
    },
    {
      "inputs": [],
      "name": "InvalidMoveCount",
      "type": "error"
    },
    {
      "inputs": [],
      "name": "InvalidSeed",
      "type": "error"
    },
    {
      "inputs": [],
      "name": "InvalidTileValue",
      "type": "error"
    },
    {
      "inputs": [],
      "name": "InvalidUsername",
      "type": "error"
    },
    {
      "inputs": [],
      "name": "LeaderboardAlreadySeeded",
      "type": "error"
    },
    {
      "inputs": [],
      "name": "NoActiveSession",
      "type": "error"
    },
    {
      "inputs": [],
      "name": "NotInitializing",
      "type": "error"
    },
    {
      "inputs": [],
      "name": "NotVerifiedHuman",
      "type": "error"
    },
    {
      "inputs": [
        {
          "internalType": "address",
          "name": "owner",
          "type": "address"
        }
      ],
      "name": "OwnableInvalidOwner",
      "type": "error"
    },
    {
      "inputs": [
        {
          "internalType": "address",
          "name": "account",
          "type": "address"
        }
      ],
      "name": "OwnableUnauthorizedAccount",
      "type": "error"
    },
    {
      "inputs": [],
      "name": "SessionAlreadyActive",
      "type": "error"
    },
    {
      "inputs": [],
      "name": "SessionExpired",
      "type": "error"
    },
    {
      "inputs": [],
      "name": "UUPSUnauthorizedCallContext",
      "type": "error"
    },
    {
      "inputs": [
        {
          "internalType": "bytes32",
          "name": "slot",
          "type": "bytes32"
        }
      ],
      "name": "UUPSUnsupportedProxiableUUID",
      "type": "error"
    },
    {
      "inputs": [],
      "name": "UsernameTaken",
      "type": "error"
    },
    {
      "anonymous": false,
      "inputs": [
        {
          "indexed": false,
          "internalType": "uint64",
          "name": "version",
          "type": "uint64"
        }
      ],
      "name": "Initialized",
      "type": "event"
    },
    {
      "anonymous": false,
      "inputs": [
        {
          "indexed": true,
          "internalType": "address",
          "name": "previousOwner",
          "type": "address"
        },
        {
          "indexed": true,
          "internalType": "address",
          "name": "newOwner",
          "type": "address"
        }
      ],
      "name": "OwnershipTransferred",
      "type": "event"
    },
    {
      "anonymous": false,
      "inputs": [
        {
          "indexed": true,
          "internalType": "address",
          "name": "player",
          "type": "address"
        },
        {
          "indexed": false,
          "internalType": "uint32",
          "name": "milestone",
          "type": "uint32"
        },
        {
          "indexed": false,
          "internalType": "uint256",
          "name": "amount",
          "type": "uint256"
        }
      ],
      "name": "RewardPaid",
      "type": "event"
    },
    {
      "anonymous": false,
      "inputs": [
        {
          "indexed": true,
          "internalType": "address",
          "name": "player",
          "type": "address"
        },
        {
          "indexed": false,
          "internalType": "uint256",
          "name": "score",
          "type": "uint256"
        },
        {
          "indexed": false,
          "internalType": "uint32",
          "name": "highestTile",
          "type": "uint32"
        }
      ],
      "name": "ScoreSubmitted",
      "type": "event"
    },
    {
      "anonymous": false,
      "inputs": [
        {
          "indexed": true,
          "internalType": "address",
          "name": "player",
          "type": "address"
        }
      ],
      "name": "SessionStarted",
      "type": "event"
    },
    {
      "anonymous": false,
      "inputs": [
        {
          "indexed": true,
          "internalType": "address",
          "name": "player",
          "type": "address"
        },
        {
          "indexed": false,
          "internalType": "uint256",
          "name": "count",
          "type": "uint256"
        }
      ],
      "name": "ShieldPurchased",
      "type": "event"
    },
    {
      "anonymous": false,
      "inputs": [
        {
          "indexed": false,
          "internalType": "uint256",
          "name": "shield",
          "type": "uint256"
        },
        {
          "indexed": false,
          "internalType": "uint256",
          "name": "boost2x",
          "type": "uint256"
        },
        {
          "indexed": false,
          "internalType": "uint256",
          "name": "boost5x",
          "type": "uint256"
        }
      ],
      "name": "ShopPricesUpdated",
      "type": "event"
    },
    {
      "anonymous": false,
      "inputs": [
        {
          "indexed": true,
          "internalType": "address",
          "name": "player",
          "type": "address"
        },
        {
          "indexed": false,
          "internalType": "uint256",
          "name": "streak",
          "type": "uint256"
        }
      ],
      "name": "StreakUpdated",
      "type": "event"
    },
    {
      "anonymous": false,
      "inputs": [
        {
          "indexed": false,
          "internalType": "address",
          "name": "gDollar",
          "type": "address"
        },
        {
          "indexed": false,
          "internalType": "address",
          "name": "identity",
          "type": "address"
        }
      ],
      "name": "TokensUpdated",
      "type": "event"
    },
    {
      "anonymous": false,
      "inputs": [
        {
          "indexed": true,
          "internalType": "address",
          "name": "implementation",
          "type": "address"
        }
      ],
      "name": "Upgraded",
      "type": "event"
    },
    {
      "anonymous": false,
      "inputs": [
        {
          "indexed": true,
          "internalType": "address",
          "name": "player",
          "type": "address"
        },
        {
          "indexed": false,
          "internalType": "string",
          "name": "name",
          "type": "string"
        }
      ],
      "name": "UsernameSet",
      "type": "event"
    },
    {
      "anonymous": false,
      "inputs": [
        {
          "indexed": true,
          "internalType": "address",
          "name": "player",
          "type": "address"
        },
        {
          "indexed": false,
          "internalType": "uint8",
          "name": "multiplier",
          "type": "uint8"
        },
        {
          "indexed": false,
          "internalType": "uint64",
          "name": "expiry",
          "type": "uint64"
        }
      ],
      "name": "XpBoostPurchased",
      "type": "event"
    },
    {
      "anonymous": false,
      "inputs": [
        {
          "indexed": true,
          "internalType": "address",
          "name": "player",
          "type": "address"
        },
        {
          "indexed": false,
          "internalType": "uint256",
          "name": "amount",
          "type": "uint256"
        },
        {
          "indexed": false,
          "internalType": "uint256",
          "name": "total",
          "type": "uint256"
        }
      ],
      "name": "XpEarned",
      "type": "event"
    },
    {
      "inputs": [],
      "name": "BOOST_DURATION",
      "outputs": [
        {
          "internalType": "uint256",
          "name": "",
          "type": "uint256"
        }
      ],
      "stateMutability": "view",
      "type": "function"
    },
    {
      "inputs": [],
      "name": "COMBO_THRESHOLD",
      "outputs": [
        {
          "internalType": "uint256",
          "name": "",
          "type": "uint256"
        }
      ],
      "stateMutability": "view",
      "type": "function"
    },
    {
      "inputs": [],
      "name": "COMBO_XP_MULTIPLIER",
      "outputs": [
        {
          "internalType": "uint256",
          "name": "",
          "type": "uint256"
        }
      ],
      "stateMutability": "view",
      "type": "function"
    },
    {
      "inputs": [],
      "name": "REWARD_1024",
      "outputs": [
        {
          "internalType": "uint256",
          "name": "",
          "type": "uint256"
        }
      ],
      "stateMutability": "view",
      "type": "function"
    },
    {
      "inputs": [],
      "name": "REWARD_2048",
      "outputs": [
        {
          "internalType": "uint256",
          "name": "",
          "type": "uint256"
        }
      ],
      "stateMutability": "view",
      "type": "function"
    },
    {
      "inputs": [],
      "name": "REWARD_256",
      "outputs": [
        {
          "internalType": "uint256",
          "name": "",
          "type": "uint256"
        }
      ],
      "stateMutability": "view",
      "type": "function"
    },
    {
      "inputs": [],
      "name": "REWARD_512",
      "outputs": [
        {
          "internalType": "uint256",
          "name": "",
          "type": "uint256"
        }
      ],
      "stateMutability": "view",
      "type": "function"
    },
    {
      "inputs": [],
      "name": "SESSION_TIMEOUT",
      "outputs": [
        {
          "internalType": "uint256",
          "name": "",
          "type": "uint256"
        }
      ],
      "stateMutability": "view",
      "type": "function"
    },
    {
      "inputs": [],
      "name": "UPGRADE_INTERFACE_VERSION",
      "outputs": [
        {
          "internalType": "string",
          "name": "",
          "type": "string"
        }
      ],
      "stateMutability": "view",
      "type": "function"
    },
    {
      "inputs": [
        {
          "internalType": "address",
          "name": "",
          "type": "address"
        }
      ],
      "name": "bestScore",
      "outputs": [
        {
          "internalType": "uint256",
          "name": "",
          "type": "uint256"
        }
      ],
      "stateMutability": "view",
      "type": "function"
    },
    {
      "inputs": [
        {
          "internalType": "address",
          "name": "",
          "type": "address"
        }
      ],
      "name": "bestTile",
      "outputs": [
        {
          "internalType": "uint32",
          "name": "",
          "type": "uint32"
        }
      ],
      "stateMutability": "view",
      "type": "function"
    },
    {
      "inputs": [],
      "name": "boost2xPrice",
      "outputs": [
        {
          "internalType": "uint256",
          "name": "",
          "type": "uint256"
        }
      ],
      "stateMutability": "view",
      "type": "function"
    },
    {
      "inputs": [],
      "name": "boost5xPrice",
      "outputs": [
        {
          "internalType": "uint256",
          "name": "",
          "type": "uint256"
        }
      ],
      "stateMutability": "view",
      "type": "function"
    },
    {
      "inputs": [],
      "name": "buyStreakShield",
      "outputs": [],
      "stateMutability": "nonpayable",
      "type": "function"
    },
    {
      "inputs": [
        {
          "internalType": "uint8",
          "name": "multiplier",
          "type": "uint8"
        }
      ],
      "name": "buyXpBoost",
      "outputs": [],
      "stateMutability": "nonpayable",
      "type": "function"
    },
    {
      "inputs": [
        {
          "internalType": "address",
          "name": "",
          "type": "address"
        }
      ],
      "name": "claimedMilestones",
      "outputs": [
        {
          "internalType": "uint8",
          "name": "",
          "type": "uint8"
        }
      ],
      "stateMutability": "view",
      "type": "function"
    },
    {
      "inputs": [
        {
          "internalType": "address",
          "name": "player",
          "type": "address"
        }
      ],
      "name": "expireSession",
      "outputs": [],
      "stateMutability": "nonpayable",
      "type": "function"
    },
    {
      "inputs": [
        {
          "internalType": "uint256",
          "name": "amount",
          "type": "uint256"
        }
      ],
      "name": "fundTreasury",
      "outputs": [],
      "stateMutability": "nonpayable",
      "type": "function"
    },
    {
      "inputs": [],
      "name": "gDollar",
      "outputs": [
        {
          "internalType": "contract IERC20",
          "name": "",
          "type": "address"
        }
      ],
      "stateMutability": "view",
      "type": "function"
    },
    {
      "inputs": [],
      "name": "getLeaderboard",
      "outputs": [
        {
          "components": [
            {
              "internalType": "address",
              "name": "player",
              "type": "address"
            },
            {
              "internalType": "uint256",
              "name": "score",
              "type": "uint256"
            },
            {
              "internalType": "uint32",
              "name": "highestTile",
              "type": "uint32"
            }
          ],
          "internalType": "struct Game2048.LeaderboardEntry[10]",
          "name": "",
          "type": "tuple[10]"
        }
      ],
      "stateMutability": "view",
      "type": "function"
    },
    {
      "inputs": [
        {
          "internalType": "address",
          "name": "player",
          "type": "address"
        }
      ],
      "name": "getSession",
      "outputs": [
        {
          "components": [
            {
              "internalType": "bool",
              "name": "active",
              "type": "bool"
            },
            {
              "internalType": "uint64",
              "name": "startTime",
              "type": "uint64"
            },
            {
              "internalType": "bytes32",
              "name": "seedHash",
              "type": "bytes32"
            }
          ],
          "internalType": "struct Game2048.Session",
          "name": "",
          "type": "tuple"
        }
      ],
      "stateMutability": "view",
      "type": "function"
    },
    {
      "inputs": [
        {
          "internalType": "address[]",
          "name": "players",
          "type": "address[]"
        }
      ],
      "name": "getUsernames",
      "outputs": [
        {
          "internalType": "string[]",
          "name": "names",
          "type": "string[]"
        }
      ],
      "stateMutability": "view",
      "type": "function"
    },
    {
      "inputs": [
        {
          "internalType": "address",
          "name": "player",
          "type": "address"
        }
      ],
      "name": "getXpBoost",
      "outputs": [
        {
          "components": [
            {
              "internalType": "uint8",
              "name": "multiplier",
              "type": "uint8"
            },
            {
              "internalType": "uint64",
              "name": "expiry",
              "type": "uint64"
            }
          ],
          "internalType": "struct Game2048.XpBoost",
          "name": "",
          "type": "tuple"
        }
      ],
      "stateMutability": "view",
      "type": "function"
    },
    {
      "inputs": [],
      "name": "identity",
      "outputs": [
        {
          "internalType": "contract IIdentity",
          "name": "",
          "type": "address"
        }
      ],
      "stateMutability": "view",
      "type": "function"
    },
    {
      "inputs": [
        {
          "internalType": "address",
          "name": "_gDollar",
          "type": "address"
        },
        {
          "internalType": "address",
          "name": "_identity",
          "type": "address"
        }
      ],
      "name": "initialize",
      "outputs": [],
      "stateMutability": "nonpayable",
      "type": "function"
    },
    {
      "inputs": [
        {
          "internalType": "address",
          "name": "",
          "type": "address"
        }
      ],
      "name": "lastPlayTimestamp",
      "outputs": [
        {
          "internalType": "uint256",
          "name": "",
          "type": "uint256"
        }
      ],
      "stateMutability": "view",
      "type": "function"
    },
    {
      "inputs": [],
      "name": "leaderboardSeeded",
      "outputs": [
        {
          "internalType": "bool",
          "name": "",
          "type": "bool"
        }
      ],
      "stateMutability": "view",
      "type": "function"
    },
    {
      "inputs": [
        {
          "internalType": "bytes32",
          "name": "",
          "type": "bytes32"
        }
      ],
      "name": "nameOwner",
      "outputs": [
        {
          "internalType": "address",
          "name": "",
          "type": "address"
        }
      ],
      "stateMutability": "view",
      "type": "function"
    },
    {
      "inputs": [],
      "name": "owner",
      "outputs": [
        {
          "internalType": "address",
          "name": "",
          "type": "address"
        }
      ],
      "stateMutability": "view",
      "type": "function"
    },
    {
      "inputs": [],
      "name": "proxiableUUID",
      "outputs": [
        {
          "internalType": "bytes32",
          "name": "",
          "type": "bytes32"
        }
      ],
      "stateMutability": "view",
      "type": "function"
    },
    {
      "inputs": [],
      "name": "renounceOwnership",
      "outputs": [],
      "stateMutability": "nonpayable",
      "type": "function"
    },
    {
      "inputs": [
        {
          "internalType": "address[]",
          "name": "players",
          "type": "address[]"
        },
        {
          "internalType": "uint256[]",
          "name": "scores",
          "type": "uint256[]"
        }
      ],
      "name": "seedLeaderboard",
      "outputs": [],
      "stateMutability": "nonpayable",
      "type": "function"
    },
    {
      "inputs": [
        {
          "internalType": "address",
          "name": "",
          "type": "address"
        }
      ],
      "name": "sessions",
      "outputs": [
        {
          "internalType": "bool",
          "name": "active",
          "type": "bool"
        },
        {
          "internalType": "uint64",
          "name": "startTime",
          "type": "uint64"
        },
        {
          "internalType": "bytes32",
          "name": "seedHash",
          "type": "bytes32"
        }
      ],
      "stateMutability": "view",
      "type": "function"
    },
    {
      "inputs": [
        {
          "internalType": "uint256",
          "name": "_shieldPrice",
          "type": "uint256"
        },
        {
          "internalType": "uint256",
          "name": "_boost2xPrice",
          "type": "uint256"
        },
        {
          "internalType": "uint256",
          "name": "_boost5xPrice",
          "type": "uint256"
        }
      ],
      "name": "setShopPrices",
      "outputs": [],
      "stateMutability": "nonpayable",
      "type": "function"
    },
    {
      "inputs": [
        {
          "internalType": "address",
          "name": "_gDollar",
          "type": "address"
        },
        {
          "internalType": "address",
          "name": "_identity",
          "type": "address"
        }
      ],
      "name": "setTokens",
      "outputs": [],
      "stateMutability": "nonpayable",
      "type": "function"
    },
    {
      "inputs": [
        {
          "internalType": "string",
          "name": "name",
          "type": "string"
        }
      ],
      "name": "setUsername",
      "outputs": [],
      "stateMutability": "nonpayable",
      "type": "function"
    },
    {
      "inputs": [
        {
          "internalType": "address",
          "name": "",
          "type": "address"
        }
      ],
      "name": "shieldCount",
      "outputs": [
        {
          "internalType": "uint256",
          "name": "",
          "type": "uint256"
        }
      ],
      "stateMutability": "view",
      "type": "function"
    },
    {
      "inputs": [],
      "name": "shieldPrice",
      "outputs": [
        {
          "internalType": "uint256",
          "name": "",
          "type": "uint256"
        }
      ],
      "stateMutability": "view",
      "type": "function"
    },
    {
      "inputs": [
        {
          "internalType": "bytes32",
          "name": "seedHash",
          "type": "bytes32"
        }
      ],
      "name": "startSession",
      "outputs": [],
      "stateMutability": "nonpayable",
      "type": "function"
    },
    {
      "inputs": [
        {
          "internalType": "address",
          "name": "",
          "type": "address"
        }
      ],
      "name": "streakCount",
      "outputs": [
        {
          "internalType": "uint256",
          "name": "",
          "type": "uint256"
        }
      ],
      "stateMutability": "view",
      "type": "function"
    },
    {
      "inputs": [
        {
          "internalType": "uint256",
          "name": "score",
          "type": "uint256"
        },
        {
          "internalType": "uint32",
          "name": "highestTile",
          "type": "uint32"
        },
        {
          "internalType": "uint256",
          "name": "moveCount",
          "type": "uint256"
        },
        {
          "internalType": "bytes32",
          "name": "seed",
          "type": "bytes32"
        },
        {
          "internalType": "uint256",
          "name": "comboMoves",
          "type": "uint256"
        }
      ],
      "name": "submitScore",
      "outputs": [],
      "stateMutability": "nonpayable",
      "type": "function"
    },
    {
      "inputs": [
        {
          "internalType": "address",
          "name": "newOwner",
          "type": "address"
        }
      ],
      "name": "transferOwnership",
      "outputs": [],
      "stateMutability": "nonpayable",
      "type": "function"
    },
    {
      "inputs": [
        {
          "internalType": "address",
          "name": "newImplementation",
          "type": "address"
        },
        {
          "internalType": "bytes",
          "name": "data",
          "type": "bytes"
        }
      ],
      "name": "upgradeToAndCall",
      "outputs": [],
      "stateMutability": "payable",
      "type": "function"
    },
    {
      "inputs": [
        {
          "internalType": "address",
          "name": "",
          "type": "address"
        }
      ],
      "name": "usernames",
      "outputs": [
        {
          "internalType": "string",
          "name": "",
          "type": "string"
        }
      ],
      "stateMutability": "view",
      "type": "function"
    },
    {
      "inputs": [
        {
          "internalType": "uint256",
          "name": "amount",
          "type": "uint256"
        }
      ],
      "name": "withdrawTreasury",
      "outputs": [],
      "stateMutability": "nonpayable",
      "type": "function"
    },
    {
      "inputs": [
        {
          "internalType": "address",
          "name": "",
          "type": "address"
        }
      ],
      "name": "xp",
      "outputs": [
        {
          "internalType": "uint256",
          "name": "",
          "type": "uint256"
        }
      ],
      "stateMutability": "view",
      "type": "function"
    },
    {
      "inputs": [
        {
          "internalType": "address",
          "name": "",
          "type": "address"
        }
      ],
      "name": "xpBoost",
      "outputs": [
        {
          "internalType": "uint8",
          "name": "multiplier",
          "type": "uint8"
        },
        {
          "internalType": "uint64",
          "name": "expiry",
          "type": "uint64"
        }
      ],
      "stateMutability": "view",
      "type": "function"
    }
  ],
  "bytecode": "0x60a0604052306080526024805460ff1916905534801561001d575f5ffd5b5061002661002b565b6100dd565b7ff0c57e16840df040f15088dc2f81fe391c3923bec73e23a9662efc9c229c6a00805468010000000000000000900460ff161561007b5760405163f92ee8a960e01b815260040160405180910390fd5b80546001600160401b03908116146100da5780546001600160401b0319166001600160401b0390811782556040519081527fc7f505b2f371ae2175ee4913f4499e1f2633a7b5936321eed1cdaeb6115181d29060200160405180910390a15b50565b608051612f696101035f395f81816122cc015281816122f501526124390152612f695ff3fe60806040526004361061027f575f3560e01c80636d763a6e11610155578063d4780166116100be578063ee91877c11610078578063ee91877c14610962578063f2fde38b14610981578063f5ab196e146109a0578063f6471f4b146109cc578063fafa81d9146109eb578063ff9c693f14610a00575f5ffd5b8063d47801661461089c578063d9c6176c146108b8578063dc0c695f146108ce578063e00a5e1d146108f9578063e8f4d28d14610918578063ed59313a14610943575f5ffd5b80639ded4f3f1161010f5780639ded4f3f146107a1578063ad3cb1cc146107e1578063b03381bc1461081e578063c083ad9914610849578063cae1f5701461085e578063cbc7854e1461087d575f5ffd5b80636d763a6e14610698578063715018a6146106b957806377e5039414610400578063878f5dde146106cd5780638c8e13b9146106e25780638da5cb5b1461078d575f5ffd5b806327e38977116101f75780634d754975116101b15780634d754975146105105780634f1ef286146105a357806350926e43146105b657806352d1902d1461061557806357446d001461062957806360637c6d14610652575f5ffd5b806327e38977146104145780632c159a1a146104335780633a17b8e714610452578063431a1b9714610467578063485cc955146104d25780634863bd49146104f1575f5ffd5b806311f1fc991161024857806311f1fc991461033c578063126717c21461035b5780631493ecae1461037a57806317716ef2146103c6578063220f3267146103e457806327aa5da614610400575f5ffd5b80628bb3671461028357806303460710146102995780630490cb74146102b85780630f979199146102f657806311eee64314610311575b5f5ffd5b34801561028e575f5ffd5b50610297610a1b565b005b3480156102a4575f5ffd5b506102976102b3366004612850565b610af2565b3480156102c3575f5ffd5b506102e36102d2366004612894565b60256020525f908152604090205481565b6040519081526020015b60405180910390f35b348015610301575f5ffd5b506102e3674563918244f4000081565b34801561031c575f5ffd5b506102e361032b366004612894565b60286020525f908152604090205481565b348015610347575f5ffd5b506102976103563660046128b4565b610b4f565b348015610366575f5ffd5b506102976103753660046128b4565b610be2565b348015610385575f5ffd5b506103ae6103943660046128b4565b602e6020525f90815260409020546001600160a01b031681565b6040516001600160a01b0390911681526020016102ed565b3480156103d1575f5ffd5b505f546103ae906001600160a01b031681565b3480156103ef575f5ffd5b506102e368022b1c8c1227a0000081565b34801561040b575f5ffd5b506102e3600581565b34801561041f575f5ffd5b5061029761042e366004612912565b610cec565b34801561043e575f5ffd5b506001546103ae906001600160a01b031681565b34801561045d575f5ffd5b506102e3602b5481565b348015610472575f5ffd5b506104ad610481366004612894565b60026020525f90815260409020805460019091015460ff82169161010090046001600160401b03169083565b6040805193151584526001600160401b039092166020840152908201526060016102ed565b3480156104dd575f5ffd5b506102976104ec36600461297c565b610ea9565b3480156104fc575f5ffd5b5061029761050b3660046129ad565b610ff7565b34801561051b575f5ffd5b5061057c61052a366004612894565b604080518082019091525f8082526020820152506001600160a01b03165f9081526029602090815260409182902082518084019093525460ff8116835261010090046001600160401b03169082015290565b60408051825160ff1681526020928301516001600160401b031692810192909252016102ed565b6102976105b1366004612a0d565b6112c5565b3480156105c1575f5ffd5b506105f46105d0366004612894565b60296020525f908152604090205460ff81169061010090046001600160401b031682565b6040805160ff90931683526001600160401b039091166020830152016102ed565b348015610620575f5ffd5b506102e36112e0565b348015610634575f5ffd5b506024546106429060ff1681565b60405190151581526020016102ed565b34801561065d575f5ffd5b5061068361066c366004612894565b60046020525f908152604090205463ffffffff1681565b60405163ffffffff90911681526020016102ed565b3480156106a3575f5ffd5b506106ac6112fb565b6040516102ed9190612ace565b3480156106c4575f5ffd5b50610297611372565b3480156106d8575f5ffd5b506102e3602c5481565b3480156106ed575f5ffd5b506107606106fc366004612894565b60408051606080820183525f80835260208084018290529284018190526001600160a01b03949094168452600282529282902082519384018352805460ff81161515855261010090046001600160401b031691840191909152600101549082015290565b604080518251151581526020808401516001600160401b03169082015291810151908201526060016102ed565b348015610798575f5ffd5b506103ae611385565b3480156107ac575f5ffd5b506107cf6107bb366004612894565b60056020525f908152604090205460ff1681565b60405160ff90911681526020016102ed565b3480156107ec575f5ffd5b50610811604051806040016040528060058152602001640352e302e360dc1b81525081565b6040516102ed9190612b55565b348015610829575f5ffd5b506102e3610838366004612894565b60266020525f908152604090205481565b348015610854575f5ffd5b506102e3611c2081565b348015610869575f5ffd5b50610297610878366004612b67565b6113b3565b348015610888575f5ffd5b5061029761089736600461297c565b611520565b3480156108a7575f5ffd5b506102e368056bc75e2d6310000081565b3480156108c3575f5ffd5b506102e36201518081565b3480156108d9575f5ffd5b506102e36108e8366004612894565b60036020525f908152604090205481565b348015610904575f5ffd5b50610297610913366004612894565b6115f0565b348015610923575f5ffd5b506102e3610932366004612894565b60276020525f908152604090205481565b34801561094e575f5ffd5b5061029761095d366004612b87565b611691565b34801561096d575f5ffd5b5061081161097c366004612894565b6119af565b34801561098c575f5ffd5b5061029761099b366004612894565b611a46565b3480156109ab575f5ffd5b506109bf6109ba366004612bf3565b611a83565b6040516102ed9190612c31565b3480156109d7575f5ffd5b506102976109e63660046128b4565b611bd9565b3480156109f6575f5ffd5b506102e3602a5481565b348015610a0b575f5ffd5b506102e367d02ab486cedc000081565b5f54602a546040516323b872dd60e01b815233600482015230602482015260448101919091526001600160a01b03909116906323b872dd906064016020604051808303815f875af1158015610a72573d5f5f3e3d5ffd5b505050506040513d601f19601f82011682018060405250810190610a969190612c94565b50335f90815260286020526040812080548290610ab290612cc7565b918290555060405181815290915033907f7a5067294782aedc617202f1dbed8b592ac9fd930c0fb586a1c67ac2e8c275249060200160405180910390a250565b610afa611c1d565b602a839055602b829055602c81905560408051848152602081018490529081018290527f1f4e61e9a347ae889fca0f472332b6e4e42fb40dfa8bbac64be04d278d03d3579060600160405180910390a1505050565b610b57611c1d565b5f546001600160a01b031663a9059cbb610b6f611385565b6040516001600160e01b031960e084901b1681526001600160a01b039091166004820152602481018490526044015b6020604051808303815f875af1158015610bba573d5f5f3e3d5ffd5b505050506040513d601f19601f82011682018060405250810190610bde9190612c94565b5050565b335f908152600260205260409020805460ff168015610c1c57508054610c1990611c209061010090046001600160401b0316612cdf565b42115b15610c2a57805460ff191681555b805460ff1615610c4d576040516327a7585d60e01b815260040160405180910390fd5b604080516060810182526001808252426001600160401b039081166020808501918252848601888152335f818152600290935287832096518754945168ffffffffffffffffff1990951690151568ffffffffffffffff0019161761010094909516939093029390931785559151939092019290925591517ff9381a73305b2f199271139d4633bc1931f1b0733936ec6ebef15d6d2f5a10089190a25050565b610cf4611c1d565b60245460ff1615610d1857604051630961bb3d60e01b815260040160405180910390fd5b828114610d5e5760405162461bcd60e51b815260206004820152600f60248201526e098cadccee8d040dad2e6dac2e8c6d608b1b60448201526064015b60405180910390fd5b600a831115610da05760405162461bcd60e51b815260206004820152600e60248201526d4d617820313020656e747269657360901b6044820152606401610d55565b6024805460ff19166001179055825f5b8160ff168160ff161015610ea157604051806060016040528087878460ff16818110610dde57610dde612cf2565b9050602002016020810190610df39190612894565b6001600160a01b0316815260200185858460ff16818110610e1657610e16612cf2565b9050602002013581526020015f63ffffffff1681525060068260ff16600a8110610e4257610e42612cf2565b82516003919091029190910180546001600160a01b0319166001600160a01b0390921691909117815560208201516001808301919091556040909201516002909101805463ffffffff191663ffffffff90921691909117905501610db0565b505050505050565b5f610eb2611c4f565b805490915060ff600160401b82041615906001600160401b03165f81158015610ed85750825b90505f826001600160401b03166001148015610ef35750303b155b905081158015610f01575080155b15610f1f5760405163f92ee8a960e01b815260040160405180910390fd5b845467ffffffffffffffff191660011785558315610f4957845460ff60401b1916600160401b1785555b610f5233611c79565b5f80546001600160a01b03808a166001600160a01b031992831617909255600180549289169290911691909117905568015af1d78b58c40000602a556802b5e3af16b1880000602b556806c6b935b8bbd40000602c558315610fee57845460ff60401b19168555604051600181527fc7f505b2f371ae2175ee4913f4499e1f2633a7b5936321eed1cdaeb6115181d29060200160405180910390a15b50505050505050565b600154604051633af32abf60e01b81523360048201526001600160a01b0390911690633af32abf90602401602060405180830381865afa15801561103d573d5f5f3e3d5ffd5b505050506040513d601f19601f820116820180604052508101906110619190612c94565b61107e576040516329c1fbb960e01b815260040160405180910390fd5b335f908152600260205260409020805460ff166110ae57604051637ff88aad60e01b815260040160405180910390fd5b80546110cb90611c209061010090046001600160401b0316612cdf565b4211156110eb57604051630fe82d2560e11b815260040160405180910390fd5b600181015460408051602081018690520160405160208183030381529060405280519060200120146111305760405163431d3a4360e11b815260040160405180910390fd5b6001841080611140575061271084115b1561115d576040516236880160e41b815260040160405180910390fd5b8382111561117e57604051637d338ddf60e11b815260040160405180910390fd5b60028563ffffffff16108061119b5750620200008563ffffffff16115b156111b957604051634825ad7b60e11b815260040160405180910390fd5b6111c4600186612d06565b851663ffffffff165f146111eb57604051634825ad7b60e11b815260040160405180910390fd5b805460ff19168155335f9081526003602052604090205486111561121b57335f9081526003602052604090208690555b335f9081526004602052604090205463ffffffff908116908616111561125d57335f908152600460205260409020805463ffffffff191663ffffffff87161790555b6040805187815263ffffffff8716602082015233917fc6482bf53678097822eef2ac1231a252a41997d9e9899e68dea1af68f8613144910160405180910390a26112a8338784611c8a565b6112b133611d72565b6112ba85611ee0565b610ea1338787612057565b6112cd6122c1565b6112d682612365565b610bde828261236d565b5f6112e961242e565b505f516020612f145f395f51905f5290565b611303612812565b6040805161014081019091526006600a5f835b82821015611369576040805160608101825260038402860180546001600160a01b0316825260018082015460208085019190915260029092015463ffffffff169383019390935290835292019101611316565b50505050905090565b61137a611c1d565b6113835f612477565b565b7f9016d09d72d40fdae2fd8ceac6b6234c7706214fd39c1cd1e609a0528c199300546001600160a01b031690565b8060ff166002141580156113cb57508060ff16600514155b156113e957604051635bd918cd60e11b815260040160405180910390fd5b5f8160ff166002146113fd57602c54611401565b602b545b5f546040516323b872dd60e01b8152336004820152306024820152604481018390529192506001600160a01b0316906323b872dd906064016020604051808303815f875af1158015611455573d5f5f3e3d5ffd5b505050506040513d601f19601f820116820180604052508101906114799190612c94565b505f6114886201518042612cdf565b60408051808201825260ff8681168083526001600160401b038581166020808601828152335f818152602984528990209751885492519095166101000268ffffffffffffffffff1990921694909616939093179290921790945584519182528101929092529293507f30c6c1560156528787181e319441f124bcc47e90125971ccebfec5ff2c9ff12c910160405180910390a2505050565b611528611c1d565b6001600160a01b0382161580159061154857506001600160a01b03811615155b6115835760405162461bcd60e51b815260206004820152600c60248201526b7a65726f206164647265737360a01b6044820152606401610d55565b5f80546001600160a01b038481166001600160a01b03199283168117909355600180549185169190921681179091556040805192835260208301919091527fdcc6331013de89f8c595d5328f0a724194f113cb6f8f2a707b3dff6de13f0d17910160405180910390a15050565b6001600160a01b0381165f908152600260205260409020805460ff1661162957604051637ff88aad60e01b815260040160405180910390fd5b805461164690611c209061010090046001600160401b0316612cdf565b42116116865760405162461bcd60e51b815260206004820152600f60248201526e139bdd08195e1c1a5c9959081e595d608a1b6044820152606401610d55565b805460ff1916905550565b5f82828080601f0160208091040260200160405190810160405280939291908181526020018383808284375f920191909152505082519293505060039091109050806116de575060148151115b156116fc57604051630a1de65160e31b815260040160405180910390fd5b5f81516001600160401b03811115611716576117166129f9565b6040519080825280601f01601f191660200182016040528015611740576020820181803683370190505b5090505f5b8251811015611888575f83828151811061176157611761612cf2565b01602001516001600160f81b0319169050604160f81b81108015906117945750602d60f91b6001600160f81b0319821611155b156117d8576117a860f882901c6020612d22565b60f81b8383815181106117bd576117bd612cf2565b60200101906001600160f81b03191690815f1a90535061187f565b606160f81b6001600160f81b03198216108015906118045750603d60f91b6001600160f81b0319821611155b806118365750600360fc1b6001600160f81b03198216108015906118365750603960f81b6001600160f81b0319821611155b8061184e5750605f60f81b6001600160f81b03198216145b1561186657808383815181106117bd576117bd612cf2565b604051630a1de65160e31b815260040160405180910390fd5b50600101611745565b5080516020808301919091205f818152602e9092526040909120546001600160a01b031680158015906118c457506001600160a01b0381163314155b156118e257604051636bc324ad60e01b815260040160405180910390fd5b335f908152602f602052604090205480158015906119005750828114155b15611921575f818152602e6020526040902080546001600160a01b03191690555b5f838152602e6020908152604080832080546001600160a01b031916339081179091558352602f8252808320869055602d9091529020611962878983612db7565b50336001600160a01b03167f74d8e560d2e870c35b35dc882df2a5c96e2bf1cdb5ef6dd2f9cb433c8d048853888860405161199e929190612e70565b60405180910390a250505050505050565b602d6020525f9081526040902080546119c790612d3b565b80601f01602080910402602001604051908101604052809291908181526020018280546119f390612d3b565b8015611a3e5780601f10611a1557610100808354040283529160200191611a3e565b820191905f5260205f20905b815481529060010190602001808311611a2157829003601f168201915b505050505081565b611a4e611c1d565b6001600160a01b038116611a7757604051631e4fbdf760e01b81525f6004820152602401610d55565b611a8081612477565b50565b6060816001600160401b03811115611a9d57611a9d6129f9565b604051908082528060200260200182016040528015611ad057816020015b6060815260200190600190039081611abb5790505b5090505f5b82811015611bd257602d5f858584818110611af257611af2612cf2565b9050602002016020810190611b079190612894565b6001600160a01b03166001600160a01b031681526020019081526020015f208054611b3190612d3b565b80601f0160208091040260200160405190810160405280929190818152602001828054611b5d90612d3b565b8015611ba85780601f10611b7f57610100808354040283529160200191611ba8565b820191905f5260205f20905b815481529060010190602001808311611b8b57829003601f168201915b5050505050828281518110611bbf57611bbf612cf2565b6020908102919091010152600101611ad5565b5092915050565b611be1611c1d565b5f546040516323b872dd60e01b8152336004820152306024820152604481018390526001600160a01b03909116906323b872dd90606401610b9e565b33611c26611385565b6001600160a01b0316146113835760405163118cdaa760e01b8152336004820152602401610d55565b5f807ff0c57e16840df040f15088dc2f81fe391c3923bec73e23a9662efc9c229c6a005b92915050565b611c816124e7565b611a808161250c565b5f611c96600a84612e9e565b905060058210611cae57611cab600582612ebd565b90505b6001600160a01b0384165f9081526029602052604090208054426101009091046001600160401b03161115611cef578054611cec9060ff1683612ebd565b91505b6001600160a01b0385165f9081526025602052604081208054849290611d16908490612cdf565b90915550506001600160a01b0385165f81815260256020908152604091829020548251868152918201527fcbe358bf96be536071d3e67c1a24669bfa0aad2e4498e896196a27f89e016bc9910160405180910390a25050505050565b6001600160a01b0381165f9081526027602052604081205490819003611db2576001600160a01b0382165f90815260266020526040902060019055611e86565b5f611dbd8242612ed4565b9050620151808110611e84576202a3008111611e00576001600160a01b0383165f908152602660205260408120805491611df683612cc7565b9190505550611e84565b6001600160a01b0383165f9081526028602052604090205415611e68576001600160a01b0383165f908152602860205260408120805491611e4083612ee7565b90915550506001600160a01b0383165f908152602660205260408120805491611df683612cc7565b6001600160a01b0383165f908152602660205260409020600190555b505b6001600160a01b0382165f81815260276020908152604080832042905560268252918290205491519182527f46f6fe577ecfefe55b0f14f0b42ddb4c22db1fb9bade43aa02c5ef4e5439512e910160405180910390a25050565b335f9081526005602052604090205460ff1661080063ffffffff831610801590611f0b575060088116155b15611f4b57611f2561080068056bc75e2d63100000612514565b15611f4b57335f908152600560205260409020805460ff19811660ff9091161760081790555b6104008263ffffffff1610158015611f64575060048116155b15611fa457611f7e61040068022b1c8c1227a00000612514565b15611fa457335f908152600560205260409020805460ff19811660ff9091161760041790555b6102008263ffffffff1610158015611fbd575060028116155b15611ffc57611fd661020067d02ab486cedc0000612514565b15611ffc57335f908152600560205260409020805460ff19811660ff9091161760021790555b6101008263ffffffff1610158015612015575060018116155b15610bde5761202e610100674563918244f40000612514565b15610bde57335f908152600560205260409020805460ff19811660ff9091161760011790555050565b5f5b600a8160ff16101561216157836001600160a01b031660068260ff16600a811061208557612085612cf2565b60030201546001600160a01b0316036121595760068160ff16600a81106120ae576120ae612cf2565b6003020160010154831115612153576040518060600160405280856001600160a01b031681526020018481526020018363ffffffff1681525060068260ff16600a81106120fd576120fd612cf2565b82516003919091029190910180546001600160a01b0319166001600160a01b03909216919091178155602082015160018201556040909101516002909101805463ffffffff191663ffffffff9092169190911790555b50505050565b600101612059565b505f80805b600a8160ff1610156121f6575f600660ff8316600a811061218957612189612cf2565b60030201546001600160a01b0316036121a857809250600191506121f6565b60068360ff16600a81106121be576121be612cf2565b600302016001015460068260ff16600a81106121dc576121dc612cf2565b600302016001015410156121ee578092505b600101612166565b50808061221f575060068260ff16600a811061221457612214612cf2565b600302016001015484115b156122ba576040518060600160405280866001600160a01b031681526020018581526020018463ffffffff1681525060068360ff16600a811061226457612264612cf2565b82516003919091029190910180546001600160a01b0319166001600160a01b03909216919091178155602082015160018201556040909101516002909101805463ffffffff191663ffffffff9092169190911790555b5050505050565b306001600160a01b037f000000000000000000000000000000000000000000000000000000000000000016148061234757507f00000000000000000000000000000000000000000000000000000000000000006001600160a01b031661233b5f516020612f145f395f51905f52546001600160a01b031690565b6001600160a01b031614155b156113835760405163703e46dd60e11b815260040160405180910390fd5b611a80611c1d565b816001600160a01b03166352d1902d6040518163ffffffff1660e01b8152600401602060405180830381865afa9250505080156123c7575060408051601f3d908101601f191682019092526123c491810190612efc565b60015b6123ef57604051634c9c8ce360e01b81526001600160a01b0383166004820152602401610d55565b5f516020612f145f395f51905f52811461241f57604051632a87526960e21b815260048101829052602401610d55565b6124298383612652565b505050565b306001600160a01b037f000000000000000000000000000000000000000000000000000000000000000016146113835760405163703e46dd60e11b815260040160405180910390fd5b7f9016d09d72d40fdae2fd8ceac6b6234c7706214fd39c1cd1e609a0528c19930080546001600160a01b031981166001600160a01b03848116918217845560405192169182907f8be0079c531659141344cd1fd0a4f28419497f9722a3daafe3b4186f6b6457e0905f90a3505050565b6124ef6126a7565b61138357604051631afcd79f60e31b815260040160405180910390fd5b611a4e6124e7565b5f80546040516370a0823160e01b81523060048201526001600160a01b03909116906370a0823190602401602060405180830381865afa925050508015612578575060408051601f3d908101601f1916820190925261257591810190612efc565b60015b1561264a57828110612648575f5460405163a9059cbb60e01b8152336004820152602481018590526001600160a01b039091169063a9059cbb906044016020604051808303815f875af19250505080156125ef575060408051601f3d908101601f191682019092526125ec91810190612c94565b60015b15612648578015612646576040805163ffffffff871681526020810186905233917f87c5e01a5860f4876d13985efbb6a6590d65635cc4eeefe9e04df5d601826ed7910160405180910390a2600192505050611c73565b505b505b505f92915050565b61265b826126c0565b6040516001600160a01b038316907fbc7cd75a20ee27fd9adebab32041f755214dbc6bffa90cc0225b39da2e5c2d3b905f90a280511561269f576124298282612723565b610bde6127bc565b5f6126b0611c4f565b54600160401b900460ff16919050565b806001600160a01b03163b5f036126f557604051634c9c8ce360e01b81526001600160a01b0382166004820152602401610d55565b5f516020612f145f395f51905f5280546001600160a01b0319166001600160a01b0392909216919091179055565b60605f61273084846127db565b905080801561275157505f3d118061275157505f846001600160a01b03163b115b156127665761275e6127ee565b915050611c73565b801561279057604051639996b31560e01b81526001600160a01b0385166004820152602401610d55565b3d156127a35761279e612807565b611bd2565b60405163d6bda27560e01b815260040160405180910390fd5b34156113835760405163b398979f60e01b815260040160405180910390fd5b5f5f5f835160208501865af49392505050565b6040513d81523d5f602083013e3d602001810160405290565b6040513d5f823e3d81fd5b604051806101400160405280600a905b604080516060810182525f80825260208083018290529282015282525f199092019101816128225790505090565b5f5f5f60608486031215612862575f5ffd5b505081359360208301359350604090920135919050565b80356001600160a01b038116811461288f575f5ffd5b919050565b5f602082840312156128a4575f5ffd5b6128ad82612879565b9392505050565b5f602082840312156128c4575f5ffd5b5035919050565b5f5f83601f8401126128db575f5ffd5b5081356001600160401b038111156128f1575f5ffd5b6020830191508360208260051b850101111561290b575f5ffd5b9250929050565b5f5f5f5f60408587031215612925575f5ffd5b84356001600160401b0381111561293a575f5ffd5b612946878288016128cb565b90955093505060208501356001600160401b03811115612964575f5ffd5b612970878288016128cb565b95989497509550505050565b5f5f6040838503121561298d575f5ffd5b61299683612879565b91506129a460208401612879565b90509250929050565b5f5f5f5f5f60a086880312156129c1575f5ffd5b85359450602086013563ffffffff811681146129db575f5ffd5b94979496505050506040830135926060810135926080909101359150565b634e487b7160e01b5f52604160045260245ffd5b5f5f60408385031215612a1e575f5ffd5b612a2783612879565b915060208301356001600160401b03811115612a41575f5ffd5b8301601f81018513612a51575f5ffd5b80356001600160401b03811115612a6a57612a6a6129f9565b604051601f8201601f19908116603f011681016001600160401b0381118282101715612a9857612a986129f9565b604052818152828201602001871015612aaf575f5ffd5b816020840160208301375f602083830101528093505050509250929050565b6103c0810181835f5b600a811015612b1e57815180516001600160a01b031684526020808201518186015260409182015163ffffffff169185019190915260609093019290910190600101612ad7565b50505092915050565b5f81518084528060208401602086015e5f602082860101526020601f19601f83011685010191505092915050565b602081525f6128ad6020830184612b27565b5f60208284031215612b77575f5ffd5b813560ff811681146128ad575f5ffd5b5f5f60208385031215612b98575f5ffd5b82356001600160401b03811115612bad575f5ffd5b8301601f81018513612bbd575f5ffd5b80356001600160401b03811115612bd2575f5ffd5b856020828401011115612be3575f5ffd5b6020919091019590945092505050565b5f5f60208385031215612c04575f5ffd5b82356001600160401b03811115612c19575f5ffd5b612c25858286016128cb565b90969095509350505050565b5f602082016020835280845180835260408501915060408160051b8601019250602086015f5b82811015612c8857603f19878603018452612c73858351612b27565b94506020938401939190910190600101612c57565b50929695505050505050565b5f60208284031215612ca4575f5ffd5b815180151581146128ad575f5ffd5b634e487b7160e01b5f52601160045260245ffd5b5f60018201612cd857612cd8612cb3565b5060010190565b80820180821115611c7357611c73612cb3565b634e487b7160e01b5f52603260045260245ffd5b63ffffffff8281168282160390811115611c7357611c73612cb3565b60ff8181168382160190811115611c7357611c73612cb3565b600181811c90821680612d4f57607f821691505b602082108103612d6d57634e487b7160e01b5f52602260045260245ffd5b50919050565b601f82111561242957805f5260205f20601f840160051c81016020851015612d985750805b601f840160051c820191505b818110156122ba575f8155600101612da4565b6001600160401b03831115612dce57612dce6129f9565b612de283612ddc8354612d3b565b83612d73565b5f601f841160018114612e13575f8515612dfc5750838201355b5f19600387901b1c1916600186901b1783556122ba565b5f83815260208120601f198716915b82811015612e425786850135825560209485019460019092019101612e22565b5086821015612e5e575f1960f88860031b161c19848701351681555b505060018560011b0183555050505050565b60208152816020820152818360408301375f818301604090810191909152601f909201601f19160101919050565b5f82612eb857634e487b7160e01b5f52601260045260245ffd5b500490565b8082028115828204841417611c7357611c73612cb3565b81810381811115611c7357611c73612cb3565b5f81612ef557612ef5612cb3565b505f190190565b5f60208284031215612f0c575f5ffd5b505191905056fe360894a13ba1a3210667c828492db98dca3e2076cc3735a920a3ca505d382bbca264697066735822122051a8868a9fc01295f55072cfa38c52c4741af224320a5fb1910555a301e06e8e64736f6c634300081c0033",
  "linkReferences": {},
  "deployedLinkReferences": {},
  "immutableReferences": {
    "867": [
      {
        "length": 32,
        "start": 8908
      },
      {
        "length": 32,
        "start": 8949
      },
      {
        "length": 32,
        "start": 9273
      }
    ]
  },
  "inputSourceName": "project/contracts/Game2048.sol",
  "buildInfoId": "solc-0_8_28-b7bbb14f10065e9885a83928bf3cb81af65bf805"
}