{
  "_format": "hh3-artifact-1",
  "contractName": "Game2048",
  "sourceName": "contracts/Game2048.sol",
  "abi": [
    {
      "inputs": [],
      "stateMutability": "nonpayable",
      "type": "constructor"
    },
    {
      "inputs": [
        {
          "internalType": "address",
          "name": "target",
          "type": "address"
        }
      ],
      "name": "AddressEmptyCode",
      "type": "error"
    },
    {
      "inputs": [
        {
          "internalType": "address",
          "name": "implementation",
          "type": "address"
        }
      ],
      "name": "ERC1967InvalidImplementation",
      "type": "error"
    },
    {
      "inputs": [],
      "name": "ERC1967NonPayable",
      "type": "error"
    },
    {
      "inputs": [],
      "name": "FailedCall",
      "type": "error"
    },
    {
      "inputs": [],
      "name": "InvalidBoostMultiplier",
      "type": "error"
    },
    {
      "inputs": [],
      "name": "InvalidComboCount",
      "type": "error"
    },
    {
      "inputs": [],
      "name": "InvalidInitialization",
      "type": "error"
    },
    {
      "inputs": [],
      "name": "InvalidMoveCount",
      "type": "error"
    },
    {
      "inputs": [],
      "name": "InvalidSeed",
      "type": "error"
    },
    {
      "inputs": [],
      "name": "InvalidTileValue",
      "type": "error"
    },
    {
      "inputs": [],
      "name": "NoActiveSession",
      "type": "error"
    },
    {
      "inputs": [],
      "name": "NotInitializing",
      "type": "error"
    },
    {
      "inputs": [],
      "name": "NotVerifiedHuman",
      "type": "error"
    },
    {
      "inputs": [
        {
          "internalType": "address",
          "name": "owner",
          "type": "address"
        }
      ],
      "name": "OwnableInvalidOwner",
      "type": "error"
    },
    {
      "inputs": [
        {
          "internalType": "address",
          "name": "account",
          "type": "address"
        }
      ],
      "name": "OwnableUnauthorizedAccount",
      "type": "error"
    },
    {
      "inputs": [],
      "name": "SessionAlreadyActive",
      "type": "error"
    },
    {
      "inputs": [],
      "name": "SessionExpired",
      "type": "error"
    },
    {
      "inputs": [],
      "name": "UUPSUnauthorizedCallContext",
      "type": "error"
    },
    {
      "inputs": [
        {
          "internalType": "bytes32",
          "name": "slot",
          "type": "bytes32"
        }
      ],
      "name": "UUPSUnsupportedProxiableUUID",
      "type": "error"
    },
    {
      "anonymous": false,
      "inputs": [
        {
          "indexed": false,
          "internalType": "uint64",
          "name": "version",
          "type": "uint64"
        }
      ],
      "name": "Initialized",
      "type": "event"
    },
    {
      "anonymous": false,
      "inputs": [
        {
          "indexed": true,
          "internalType": "address",
          "name": "previousOwner",
          "type": "address"
        },
        {
          "indexed": true,
          "internalType": "address",
          "name": "newOwner",
          "type": "address"
        }
      ],
      "name": "OwnershipTransferred",
      "type": "event"
    },
    {
      "anonymous": false,
      "inputs": [
        {
          "indexed": true,
          "internalType": "address",
          "name": "player",
          "type": "address"
        },
        {
          "indexed": false,
          "internalType": "uint32",
          "name": "milestone",
          "type": "uint32"
        },
        {
          "indexed": false,
          "internalType": "uint256",
          "name": "amount",
          "type": "uint256"
        }
      ],
      "name": "RewardPaid",
      "type": "event"
    },
    {
      "anonymous": false,
      "inputs": [
        {
          "indexed": true,
          "internalType": "address",
          "name": "player",
          "type": "address"
        },
        {
          "indexed": false,
          "internalType": "uint256",
          "name": "score",
          "type": "uint256"
        },
        {
          "indexed": false,
          "internalType": "uint32",
          "name": "highestTile",
          "type": "uint32"
        }
      ],
      "name": "ScoreSubmitted",
      "type": "event"
    },
    {
      "anonymous": false,
      "inputs": [
        {
          "indexed": true,
          "internalType": "address",
          "name": "player",
          "type": "address"
        }
      ],
      "name": "SessionStarted",
      "type": "event"
    },
    {
      "anonymous": false,
      "inputs": [
        {
          "indexed": true,
          "internalType": "address",
          "name": "player",
          "type": "address"
        },
        {
          "indexed": false,
          "internalType": "uint256",
          "name": "count",
          "type": "uint256"
        }
      ],
      "name": "ShieldPurchased",
      "type": "event"
    },
    {
      "anonymous": false,
      "inputs": [
        {
          "indexed": false,
          "internalType": "uint256",
          "name": "shield",
          "type": "uint256"
        },
        {
          "indexed": false,
          "internalType": "uint256",
          "name": "boost2x",
          "type": "uint256"
        },
        {
          "indexed": false,
          "internalType": "uint256",
          "name": "boost5x",
          "type": "uint256"
        }
      ],
      "name": "ShopPricesUpdated",
      "type": "event"
    },
    {
      "anonymous": false,
      "inputs": [
        {
          "indexed": true,
          "internalType": "address",
          "name": "player",
          "type": "address"
        },
        {
          "indexed": false,
          "internalType": "uint256",
          "name": "streak",
          "type": "uint256"
        }
      ],
      "name": "StreakUpdated",
      "type": "event"
    },
    {
      "anonymous": false,
      "inputs": [
        {
          "indexed": true,
          "internalType": "address",
          "name": "implementation",
          "type": "address"
        }
      ],
      "name": "Upgraded",
      "type": "event"
    },
    {
      "anonymous": false,
      "inputs": [
        {
          "indexed": true,
          "internalType": "address",
          "name": "player",
          "type": "address"
        },
        {
          "indexed": false,
          "internalType": "uint8",
          "name": "multiplier",
          "type": "uint8"
        },
        {
          "indexed": false,
          "internalType": "uint64",
          "name": "expiry",
          "type": "uint64"
        }
      ],
      "name": "XpBoostPurchased",
      "type": "event"
    },
    {
      "anonymous": false,
      "inputs": [
        {
          "indexed": true,
          "internalType": "address",
          "name": "player",
          "type": "address"
        },
        {
          "indexed": false,
          "internalType": "uint256",
          "name": "amount",
          "type": "uint256"
        },
        {
          "indexed": false,
          "internalType": "uint256",
          "name": "total",
          "type": "uint256"
        }
      ],
      "name": "XpEarned",
      "type": "event"
    },
    {
      "inputs": [],
      "name": "BOOST_DURATION",
      "outputs": [
        {
          "internalType": "uint256",
          "name": "",
          "type": "uint256"
        }
      ],
      "stateMutability": "view",
      "type": "function"
    },
    {
      "inputs": [],
      "name": "COMBO_THRESHOLD",
      "outputs": [
        {
          "internalType": "uint256",
          "name": "",
          "type": "uint256"
        }
      ],
      "stateMutability": "view",
      "type": "function"
    },
    {
      "inputs": [],
      "name": "COMBO_XP_MULTIPLIER",
      "outputs": [
        {
          "internalType": "uint256",
          "name": "",
          "type": "uint256"
        }
      ],
      "stateMutability": "view",
      "type": "function"
    },
    {
      "inputs": [],
      "name": "REWARD_1024",
      "outputs": [
        {
          "internalType": "uint256",
          "name": "",
          "type": "uint256"
        }
      ],
      "stateMutability": "view",
      "type": "function"
    },
    {
      "inputs": [],
      "name": "REWARD_2048",
      "outputs": [
        {
          "internalType": "uint256",
          "name": "",
          "type": "uint256"
        }
      ],
      "stateMutability": "view",
      "type": "function"
    },
    {
      "inputs": [],
      "name": "REWARD_256",
      "outputs": [
        {
          "internalType": "uint256",
          "name": "",
          "type": "uint256"
        }
      ],
      "stateMutability": "view",
      "type": "function"
    },
    {
      "inputs": [],
      "name": "REWARD_512",
      "outputs": [
        {
          "internalType": "uint256",
          "name": "",
          "type": "uint256"
        }
      ],
      "stateMutability": "view",
      "type": "function"
    },
    {
      "inputs": [],
      "name": "SESSION_TIMEOUT",
      "outputs": [
        {
          "internalType": "uint256",
          "name": "",
          "type": "uint256"
        }
      ],
      "stateMutability": "view",
      "type": "function"
    },
    {
      "inputs": [],
      "name": "UPGRADE_INTERFACE_VERSION",
      "outputs": [
        {
          "internalType": "string",
          "name": "",
          "type": "string"
        }
      ],
      "stateMutability": "view",
      "type": "function"
    },
    {
      "inputs": [
        {
          "internalType": "address",
          "name": "",
          "type": "address"
        }
      ],
      "name": "bestScore",
      "outputs": [
        {
          "internalType": "uint256",
          "name": "",
          "type": "uint256"
        }
      ],
      "stateMutability": "view",
      "type": "function"
    },
    {
      "inputs": [
        {
          "internalType": "address",
          "name": "",
          "type": "address"
        }
      ],
      "name": "bestTile",
      "outputs": [
        {
          "internalType": "uint32",
          "name": "",
          "type": "uint32"
        }
      ],
      "stateMutability": "view",
      "type": "function"
    },
    {
      "inputs": [],
      "name": "boost2xPrice",
      "outputs": [
        {
          "internalType": "uint256",
          "name": "",
          "type": "uint256"
        }
      ],
      "stateMutability": "view",
      "type": "function"
    },
    {
      "inputs": [],
      "name": "boost5xPrice",
      "outputs": [
        {
          "internalType": "uint256",
          "name": "",
          "type": "uint256"
        }
      ],
      "stateMutability": "view",
      "type": "function"
    },
    {
      "inputs": [],
      "name": "buyStreakShield",
      "outputs": [],
      "stateMutability": "nonpayable",
      "type": "function"
    },
    {
      "inputs": [
        {
          "internalType": "uint8",
          "name": "multiplier",
          "type": "uint8"
        }
      ],
      "name": "buyXpBoost",
      "outputs": [],
      "stateMutability": "nonpayable",
      "type": "function"
    },
    {
      "inputs": [
        {
          "internalType": "address",
          "name": "",
          "type": "address"
        }
      ],
      "name": "claimedMilestones",
      "outputs": [
        {
          "internalType": "uint8",
          "name": "",
          "type": "uint8"
        }
      ],
      "stateMutability": "view",
      "type": "function"
    },
    {
      "inputs": [
        {
          "internalType": "address",
          "name": "player",
          "type": "address"
        }
      ],
      "name": "expireSession",
      "outputs": [],
      "stateMutability": "nonpayable",
      "type": "function"
    },
    {
      "inputs": [
        {
          "internalType": "uint256",
          "name": "amount",
          "type": "uint256"
        }
      ],
      "name": "fundTreasury",
      "outputs": [],
      "stateMutability": "nonpayable",
      "type": "function"
    },
    {
      "inputs": [],
      "name": "gDollar",
      "outputs": [
        {
          "internalType": "contract IERC20",
          "name": "",
          "type": "address"
        }
      ],
      "stateMutability": "view",
      "type": "function"
    },
    {
      "inputs": [],
      "name": "getLeaderboard",
      "outputs": [
        {
          "components": [
            {
              "internalType": "address",
              "name": "player",
              "type": "address"
            },
            {
              "internalType": "uint256",
              "name": "score",
              "type": "uint256"
            },
            {
              "internalType": "uint32",
              "name": "highestTile",
              "type": "uint32"
            }
          ],
          "internalType": "struct Game2048.LeaderboardEntry[10]",
          "name": "",
          "type": "tuple[10]"
        }
      ],
      "stateMutability": "view",
      "type": "function"
    },
    {
      "inputs": [
        {
          "internalType": "address",
          "name": "player",
          "type": "address"
        }
      ],
      "name": "getSession",
      "outputs": [
        {
          "components": [
            {
              "internalType": "bool",
              "name": "active",
              "type": "bool"
            },
            {
              "internalType": "uint64",
              "name": "startTime",
              "type": "uint64"
            },
            {
              "internalType": "bytes32",
              "name": "seedHash",
              "type": "bytes32"
            }
          ],
          "internalType": "struct Game2048.Session",
          "name": "",
          "type": "tuple"
        }
      ],
      "stateMutability": "view",
      "type": "function"
    },
    {
      "inputs": [
        {
          "internalType": "address",
          "name": "player",
          "type": "address"
        }
      ],
      "name": "getXpBoost",
      "outputs": [
        {
          "components": [
            {
              "internalType": "uint8",
              "name": "multiplier",
              "type": "uint8"
            },
            {
              "internalType": "uint64",
              "name": "expiry",
              "type": "uint64"
            }
          ],
          "internalType": "struct Game2048.XpBoost",
          "name": "",
          "type": "tuple"
        }
      ],
      "stateMutability": "view",
      "type": "function"
    },
    {
      "inputs": [],
      "name": "identity",
      "outputs": [
        {
          "internalType": "contract IIdentity",
          "name": "",
          "type": "address"
        }
      ],
      "stateMutability": "view",
      "type": "function"
    },
    {
      "inputs": [
        {
          "internalType": "address",
          "name": "_gDollar",
          "type": "address"
        },
        {
          "internalType": "address",
          "name": "_identity",
          "type": "address"
        }
      ],
      "name": "initialize",
      "outputs": [],
      "stateMutability": "nonpayable",
      "type": "function"
    },
    {
      "inputs": [
        {
          "internalType": "address",
          "name": "",
          "type": "address"
        }
      ],
      "name": "lastPlayTimestamp",
      "outputs": [
        {
          "internalType": "uint256",
          "name": "",
          "type": "uint256"
        }
      ],
      "stateMutability": "view",
      "type": "function"
    },
    {
      "inputs": [],
      "name": "owner",
      "outputs": [
        {
          "internalType": "address",
          "name": "",
          "type": "address"
        }
      ],
      "stateMutability": "view",
      "type": "function"
    },
    {
      "inputs": [],
      "name": "proxiableUUID",
      "outputs": [
        {
          "internalType": "bytes32",
          "name": "",
          "type": "bytes32"
        }
      ],
      "stateMutability": "view",
      "type": "function"
    },
    {
      "inputs": [],
      "name": "renounceOwnership",
      "outputs": [],
      "stateMutability": "nonpayable",
      "type": "function"
    },
    {
      "inputs": [
        {
          "internalType": "address",
          "name": "",
          "type": "address"
        }
      ],
      "name": "sessions",
      "outputs": [
        {
          "internalType": "bool",
          "name": "active",
          "type": "bool"
        },
        {
          "internalType": "uint64",
          "name": "startTime",
          "type": "uint64"
        },
        {
          "internalType": "bytes32",
          "name": "seedHash",
          "type": "bytes32"
        }
      ],
      "stateMutability": "view",
      "type": "function"
    },
    {
      "inputs": [
        {
          "internalType": "uint256",
          "name": "_shieldPrice",
          "type": "uint256"
        },
        {
          "internalType": "uint256",
          "name": "_boost2xPrice",
          "type": "uint256"
        },
        {
          "internalType": "uint256",
          "name": "_boost5xPrice",
          "type": "uint256"
        }
      ],
      "name": "setShopPrices",
      "outputs": [],
      "stateMutability": "nonpayable",
      "type": "function"
    },
    {
      "inputs": [
        {
          "internalType": "address",
          "name": "",
          "type": "address"
        }
      ],
      "name": "shieldCount",
      "outputs": [
        {
          "internalType": "uint256",
          "name": "",
          "type": "uint256"
        }
      ],
      "stateMutability": "view",
      "type": "function"
    },
    {
      "inputs": [],
      "name": "shieldPrice",
      "outputs": [
        {
          "internalType": "uint256",
          "name": "",
          "type": "uint256"
        }
      ],
      "stateMutability": "view",
      "type": "function"
    },
    {
      "inputs": [
        {
          "internalType": "bytes32",
          "name": "seedHash",
          "type": "bytes32"
        }
      ],
      "name": "startSession",
      "outputs": [],
      "stateMutability": "nonpayable",
      "type": "function"
    },
    {
      "inputs": [
        {
          "internalType": "address",
          "name": "",
          "type": "address"
        }
      ],
      "name": "streakCount",
      "outputs": [
        {
          "internalType": "uint256",
          "name": "",
          "type": "uint256"
        }
      ],
      "stateMutability": "view",
      "type": "function"
    },
    {
      "inputs": [
        {
          "internalType": "uint256",
          "name": "score",
          "type": "uint256"
        },
        {
          "internalType": "uint32",
          "name": "highestTile",
          "type": "uint32"
        },
        {
          "internalType": "uint256",
          "name": "moveCount",
          "type": "uint256"
        },
        {
          "internalType": "bytes32",
          "name": "seed",
          "type": "bytes32"
        },
        {
          "internalType": "uint256",
          "name": "comboMoves",
          "type": "uint256"
        }
      ],
      "name": "submitScore",
      "outputs": [],
      "stateMutability": "nonpayable",
      "type": "function"
    },
    {
      "inputs": [
        {
          "internalType": "address",
          "name": "newOwner",
          "type": "address"
        }
      ],
      "name": "transferOwnership",
      "outputs": [],
      "stateMutability": "nonpayable",
      "type": "function"
    },
    {
      "inputs": [
        {
          "internalType": "address",
          "name": "newImplementation",
          "type": "address"
        },
        {
          "internalType": "bytes",
          "name": "data",
          "type": "bytes"
        }
      ],
      "name": "upgradeToAndCall",
      "outputs": [],
      "stateMutability": "payable",
      "type": "function"
    },
    {
      "inputs": [
        {
          "internalType": "uint256",
          "name": "amount",
          "type": "uint256"
        }
      ],
      "name": "withdrawTreasury",
      "outputs": [],
      "stateMutability": "nonpayable",
      "type": "function"
    },
    {
      "inputs": [
        {
          "internalType": "address",
          "name": "",
          "type": "address"
        }
      ],
      "name": "xp",
      "outputs": [
        {
          "internalType": "uint256",
          "name": "",
          "type": "uint256"
        }
      ],
      "stateMutability": "view",
      "type": "function"
    },
    {
      "inputs": [
        {
          "internalType": "address",
          "name": "",
          "type": "address"
        }
      ],
      "name": "xpBoost",
      "outputs": [
        {
          "internalType": "uint8",
          "name": "multiplier",
          "type": "uint8"
        },
        {
          "internalType": "uint64",
          "name": "expiry",
          "type": "uint64"
        }
      ],
      "stateMutability": "view",
      "type": "function"
    }
  ],
  "bytecode": "0x60a060405230608052348015610013575f5ffd5b5061001c610021565b6100d3565b7ff0c57e16840df040f15088dc2f81fe391c3923bec73e23a9662efc9c229c6a00805468010000000000000000900460ff16156100715760405163f92ee8a960e01b815260040160405180910390fd5b80546001600160401b03908116146100d05780546001600160401b0319166001600160401b0390811782556040519081527fc7f505b2f371ae2175ee4913f4499e1f2633a7b5936321eed1cdaeb6115181d29060200160405180910390a15b50565b6080516122096100f95f395f81816118ca015281816118f30152611a3701526122095ff3fe608060405260043610610232575f3560e01c80636d763a6e11610129578063cae1f570116100a8578063e8f4d28d1161006d578063e8f4d28d14610830578063f2fde38b1461085b578063f6471f4b1461087a578063fafa81d914610899578063ff9c693f146108ae575f5ffd5b8063cae1f57014610795578063d4780166146107b4578063d9c6176c146107d0578063dc0c695f146107e6578063e00a5e1d14610811575f5ffd5b80638da5cb5b116100ee5780638da5cb5b146106c45780639ded4f3f146106d8578063ad3cb1cc14610718578063b03381bc14610755578063c083ad9914610780575f5ffd5b80636d763a6e146105cf578063715018a6146105f057806377e503941461037f578063878f5dde146106045780638c8e13b914610619575f5ffd5b80632c159a1a116101b55780634d7549751161017a5780634d754975146104705780634f1ef2861461050357806350926e431461051657806352d1902d1461057557806360637c6d14610589575f5ffd5b80632c159a1a146103935780633a17b8e7146103b2578063431a1b97146103c7578063485cc955146104325780634863bd4914610451575f5ffd5b806311f1fc99116101fb57806311f1fc99146102ef578063126717c21461030e57806317716ef21461032d578063220f32671461036357806327aa5da61461037f575f5ffd5b80628bb36714610236578063034607101461024c5780630490cb741461026b5780630f979199146102a957806311eee643146102c4575b5f5ffd5b348015610241575f5ffd5b5061024a6108c9565b005b348015610257575f5ffd5b5061024a610266366004611e35565b6109a0565b348015610276575f5ffd5b50610296610285366004611e79565b60246020525f908152604090205481565b6040519081526020015b60405180910390f35b3480156102b4575f5ffd5b50610296674563918244f4000081565b3480156102cf575f5ffd5b506102966102de366004611e79565b60276020525f908152604090205481565b3480156102fa575f5ffd5b5061024a610309366004611e99565b6109fd565b348015610319575f5ffd5b5061024a610328366004611e99565b610a90565b348015610338575f5ffd5b505f5461034b906001600160a01b031681565b6040516001600160a01b0390911681526020016102a0565b34801561036e575f5ffd5b5061029668022b1c8c1227a0000081565b34801561038a575f5ffd5b50610296600581565b34801561039e575f5ffd5b5060015461034b906001600160a01b031681565b3480156103bd575f5ffd5b50610296602a5481565b3480156103d2575f5ffd5b5061040d6103e1366004611e79565b60026020525f90815260409020805460019091015460ff82169161010090046001600160401b03169083565b6040805193151584526001600160401b039092166020840152908201526060016102a0565b34801561043d575f5ffd5b5061024a61044c366004611eb0565b610c21565b34801561045c575f5ffd5b5061024a61046b366004611ee1565b610d6f565b34801561047b575f5ffd5b506104dc61048a366004611e79565b604080518082019091525f8082526020820152506001600160a01b03165f9081526028602090815260409182902082518084019093525460ff8116835261010090046001600160401b03169082015290565b60408051825160ff1681526020928301516001600160401b031692810192909252016102a0565b61024a610511366004611f41565b610fbe565b348015610521575f5ffd5b50610554610530366004611e79565b60286020525f908152604090205460ff81169061010090046001600160401b031682565b6040805160ff90931683526001600160401b039091166020830152016102a0565b348015610580575f5ffd5b50610296610fd9565b348015610594575f5ffd5b506105ba6105a3366004611e79565b60046020525f908152604090205463ffffffff1681565b60405163ffffffff90911681526020016102a0565b3480156105da575f5ffd5b506105e3610ff4565b6040516102a09190612002565b3480156105fb575f5ffd5b5061024a61106b565b34801561060f575f5ffd5b50610296602b5481565b348015610624575f5ffd5b50610697610633366004611e79565b60408051606080820183525f80835260208084018290529284018190526001600160a01b03949094168452600282529282902082519384018352805460ff81161515855261010090046001600160401b031691840191909152600101549082015290565b604080518251151581526020808401516001600160401b03169082015291810151908201526060016102a0565b3480156106cf575f5ffd5b5061034b61107e565b3480156106e3575f5ffd5b506107066106f2366004611e79565b60056020525f908152604090205460ff1681565b60405160ff90911681526020016102a0565b348015610723575f5ffd5b50610748604051806040016040528060058152602001640352e302e360dc1b81525081565b6040516102a0919061205b565b348015610760575f5ffd5b5061029661076f366004611e79565b60256020525f908152604090205481565b34801561078b575f5ffd5b50610296611c2081565b3480156107a0575f5ffd5b5061024a6107af366004612090565b6110ac565b3480156107bf575f5ffd5b5061029668056bc75e2d6310000081565b3480156107db575f5ffd5b506102966201518081565b3480156107f1575f5ffd5b50610296610800366004611e79565b60036020525f908152604090205481565b34801561081c575f5ffd5b5061024a61082b366004611e79565b611219565b34801561083b575f5ffd5b5061029661084a366004611e79565b60266020525f908152604090205481565b348015610866575f5ffd5b5061024a610875366004611e79565b6112bf565b348015610885575f5ffd5b5061024a610894366004611e99565b6112fc565b3480156108a4575f5ffd5b5061029660295481565b3480156108b9575f5ffd5b5061029667d02ab486cedc000081565b5f546029546040516323b872dd60e01b815233600482015230602482015260448101919091526001600160a01b03909116906323b872dd906064016020604051808303815f875af1158015610920573d5f5f3e3d5ffd5b505050506040513d601f19601f8201168201806040525081019061094491906120b0565b50335f90815260276020526040812080548290610960906120e3565b918290555060405181815290915033907f7a5067294782aedc617202f1dbed8b592ac9fd930c0fb586a1c67ac2e8c275249060200160405180910390a250565b6109a8611340565b6029839055602a829055602b81905560408051848152602081018490529081018290527f1f4e61e9a347ae889fca0f472332b6e4e42fb40dfa8bbac64be04d278d03d3579060600160405180910390a1505050565b610a05611340565b5f546001600160a01b031663a9059cbb610a1d61107e565b6040516001600160e01b031960e084901b1681526001600160a01b039091166004820152602481018490526044015b6020604051808303815f875af1158015610a68573d5f5f3e3d5ffd5b505050506040513d601f19601f82011682018060405250810190610a8c91906120b0565b5050565b600154604051633af32abf60e01b81523360048201526001600160a01b0390911690633af32abf90602401602060405180830381865afa158015610ad6573d5f5f3e3d5ffd5b505050506040513d601f19601f82011682018060405250810190610afa91906120b0565b610b17576040516329c1fbb960e01b815260040160405180910390fd5b335f908152600260205260409020805460ff168015610b5157508054610b4e90611c209061010090046001600160401b03166120fb565b42115b15610b5f57805460ff191681555b805460ff1615610b82576040516327a7585d60e01b815260040160405180910390fd5b604080516060810182526001808252426001600160401b039081166020808501918252848601888152335f818152600290935287832096518754945168ffffffffffffffffff1990951690151568ffffffffffffffff0019161761010094909516939093029390931785559151939092019290925591517ff9381a73305b2f199271139d4633bc1931f1b0733936ec6ebef15d6d2f5a10089190a25050565b5f610c2a611372565b805490915060ff600160401b82041615906001600160401b03165f81158015610c505750825b90505f826001600160401b03166001148015610c6b5750303b155b905081158015610c79575080155b15610c975760405163f92ee8a960e01b815260040160405180910390fd5b845467ffffffffffffffff191660011785558315610cc157845460ff60401b1916600160401b1785555b610cca3361139c565b5f80546001600160a01b03808a166001600160a01b031992831617909255600180549289169290911691909117905568015af1d78b58c400006029556802b5e3af16b1880000602a556806c6b935b8bbd40000602b558315610d6657845460ff60401b19168555604051600181527fc7f505b2f371ae2175ee4913f4499e1f2633a7b5936321eed1cdaeb6115181d29060200160405180910390a15b50505050505050565b335f908152600260205260409020805460ff16610d9f57604051637ff88aad60e01b815260040160405180910390fd5b8054610dbc90611c209061010090046001600160401b03166120fb565b421115610ddc57604051630fe82d2560e11b815260040160405180910390fd5b60018101546040805160208101869052016040516020818303038152906040528051906020012014610e215760405163431d3a4360e11b815260040160405180910390fd5b6001841080610e31575061271084115b15610e4e576040516236880160e41b815260040160405180910390fd5b83821115610e6f57604051637d338ddf60e11b815260040160405180910390fd5b60028563ffffffff161080610e8c5750620200008563ffffffff16115b15610eaa57604051634825ad7b60e11b815260040160405180910390fd5b610eb560018661210e565b851663ffffffff165f14610edc57604051634825ad7b60e11b815260040160405180910390fd5b805460ff19168155335f90815260036020526040902054861115610f0c57335f9081526003602052604090208690555b335f9081526004602052604090205463ffffffff9081169086161115610f4e57335f908152600460205260409020805463ffffffff191663ffffffff87161790555b6040805187815263ffffffff8716602082015233917fc6482bf53678097822eef2ac1231a252a41997d9e9899e68dea1af68f8613144910160405180910390a2610f993387846113ad565b610fa233611495565b610fab85611604565b610fb6338787611760565b505050505050565b610fc66118bf565b610fcf82611963565b610a8c828261196b565b5f610fe2611a2c565b505f5160206121b45f395f51905f5290565b610ffc611df7565b6040805161014081019091526006600a5f835b82821015611062576040805160608101825260038402860180546001600160a01b0316825260018082015460208085019190915260029092015463ffffffff16938301939093529083529201910161100f565b50505050905090565b611073611340565b61107c5f611a75565b565b7f9016d09d72d40fdae2fd8ceac6b6234c7706214fd39c1cd1e609a0528c199300546001600160a01b031690565b8060ff166002141580156110c457508060ff16600514155b156110e257604051635bd918cd60e11b815260040160405180910390fd5b5f8160ff166002146110f657602b546110fa565b602a545b5f546040516323b872dd60e01b8152336004820152306024820152604481018390529192506001600160a01b0316906323b872dd906064016020604051808303815f875af115801561114e573d5f5f3e3d5ffd5b505050506040513d601f19601f8201168201806040525081019061117291906120b0565b505f61118162015180426120fb565b60408051808201825260ff8681168083526001600160401b038581166020808601828152335f818152602884528990209751885492519095166101000268ffffffffffffffffff1990921694909616939093179290921790945584519182528101929092529293507f30c6c1560156528787181e319441f124bcc47e90125971ccebfec5ff2c9ff12c910160405180910390a2505050565b6001600160a01b0381165f908152600260205260409020805460ff1661125257604051637ff88aad60e01b815260040160405180910390fd5b805461126f90611c209061010090046001600160401b03166120fb565b42116112b45760405162461bcd60e51b815260206004820152600f60248201526e139bdd08195e1c1a5c9959081e595d608a1b60448201526064015b60405180910390fd5b805460ff1916905550565b6112c7611340565b6001600160a01b0381166112f057604051631e4fbdf760e01b81525f60048201526024016112ab565b6112f981611a75565b50565b611304611340565b5f546040516323b872dd60e01b8152336004820152306024820152604481018390526001600160a01b03909116906323b872dd90606401610a4c565b3361134961107e565b6001600160a01b03161461107c5760405163118cdaa760e01b81523360048201526024016112ab565b5f807ff0c57e16840df040f15088dc2f81fe391c3923bec73e23a9662efc9c229c6a005b92915050565b6113a4611ae5565b6112f981611b0a565b5f6113b9600a8461212a565b9050600582106113d1576113ce600582612149565b90505b6001600160a01b0384165f9081526028602052604090208054426101009091046001600160401b0316111561141257805461140f9060ff1683612149565b91505b6001600160a01b0385165f90815260246020526040812080548492906114399084906120fb565b90915550506001600160a01b0385165f81815260246020908152604091829020548251868152918201527fcbe358bf96be536071d3e67c1a24669bfa0aad2e4498e896196a27f89e016bc9910160405180910390a25050505050565b6001600160a01b0381165f90815260266020526040812054908190036114d5576001600160a01b0382165f908152602560205260409020600190556115a9565b5f6114e08242612160565b90506201518081106115a7576202a3008111611523576001600160a01b0383165f908152602560205260408120805491611519836120e3565b91905055506115a7565b6001600160a01b0383165f908152602760205260409020541561158b576001600160a01b0383165f90815260276020526040812080549161156383612173565b90915550506001600160a01b0383165f908152602560205260408120805491611519836120e3565b6001600160a01b0383165f908152602560205260409020600190555b505b6001600160a01b0382165f81815260266020908152604080832042905560258252918290205491519182527f46f6fe577ecfefe55b0f14f0b42ddb4c22db1fb9bade43aa02c5ef4e5439512e91015b60405180910390a25050565b335f9081526005602052604090205460ff1661080063ffffffff83161080159061162f575060088116155b1561166957335f908152600560205260409020805460ff19811660ff90911617600817905561166961080068056bc75e2d63100000611b12565b6104008263ffffffff1610158015611682575060048116155b156116bc57335f908152600560205260409020805460ff19811660ff9091161760041790556116bc61040068022b1c8c1227a00000611b12565b6102008263ffffffff16101580156116d5575060028116155b1561170e57335f908152600560205260409020805460ff19811660ff90911617600217905561170e61020067d02ab486cedc0000611b12565b6101008263ffffffff1610158015611727575060018116155b15610a8c57335f908152600560205260409020805460ff19811660ff909116176001179055610a8c610100674563918244f40000611b12565b5f80805b600a8160ff1610156117f4575f600660ff8316600a811061178757611787612188565b60030201546001600160a01b0316036117a657809250600191506117f4565b60068360ff16600a81106117bc576117bc612188565b600302016001015460068260ff16600a81106117da576117da612188565b600302016001015410156117ec578092505b600101611764565b50808061181d575060068260ff16600a811061181257611812612188565b600302016001015484115b156118b8576040518060600160405280866001600160a01b031681526020018581526020018463ffffffff1681525060068360ff16600a811061186257611862612188565b82516003919091029190910180546001600160a01b0319166001600160a01b03909216919091178155602082015160018201556040909101516002909101805463ffffffff191663ffffffff9092169190911790555b5050505050565b306001600160a01b037f000000000000000000000000000000000000000000000000000000000000000016148061194557507f00000000000000000000000000000000000000000000000000000000000000006001600160a01b03166119395f5160206121b45f395f51905f52546001600160a01b031690565b6001600160a01b031614155b1561107c5760405163703e46dd60e11b815260040160405180910390fd5b6112f9611340565b816001600160a01b03166352d1902d6040518163ffffffff1660e01b8152600401602060405180830381865afa9250505080156119c5575060408051601f3d908101601f191682019092526119c29181019061219c565b60015b6119ed57604051634c9c8ce360e01b81526001600160a01b03831660048201526024016112ab565b5f5160206121b45f395f51905f528114611a1d57604051632a87526960e21b8152600481018290526024016112ab565b611a278383611c30565b505050565b306001600160a01b037f0000000000000000000000000000000000000000000000000000000000000000161461107c5760405163703e46dd60e11b815260040160405180910390fd5b7f9016d09d72d40fdae2fd8ceac6b6234c7706214fd39c1cd1e609a0528c19930080546001600160a01b031981166001600160a01b03848116918217845560405192169182907f8be0079c531659141344cd1fd0a4f28419497f9722a3daafe3b4186f6b6457e0905f90a3505050565b611aed611c85565b61107c57604051631afcd79f60e31b815260040160405180910390fd5b6112c7611ae5565b5f546040516370a0823160e01b815230600482015282916001600160a01b0316906370a0823190602401602060405180830381865afa158015611b57573d5f5f3e3d5ffd5b505050506040513d601f19601f82011682018060405250810190611b7b919061219c565b10610a8c575f5460405163a9059cbb60e01b8152336004820152602481018390526001600160a01b039091169063a9059cbb906044016020604051808303815f875af1158015611bcd573d5f5f3e3d5ffd5b505050506040513d601f19601f82011682018060405250810190611bf191906120b0565b506040805163ffffffff841681526020810183905233917f87c5e01a5860f4876d13985efbb6a6590d65635cc4eeefe9e04df5d601826ed791016115f8565b611c3982611c9e565b6040516001600160a01b038316907fbc7cd75a20ee27fd9adebab32041f755214dbc6bffa90cc0225b39da2e5c2d3b905f90a2805115611c7d57611a278282611d01565b610a8c611da1565b5f611c8e611372565b54600160401b900460ff16919050565b806001600160a01b03163b5f03611cd357604051634c9c8ce360e01b81526001600160a01b03821660048201526024016112ab565b5f5160206121b45f395f51905f5280546001600160a01b0319166001600160a01b0392909216919091179055565b60605f611d0e8484611dc0565b9050808015611d2f57505f3d1180611d2f57505f846001600160a01b03163b115b15611d4457611d3c611dd3565b915050611396565b8015611d6e57604051639996b31560e01b81526001600160a01b03851660048201526024016112ab565b3d15611d8157611d7c611dec565b611d9a565b60405163d6bda27560e01b815260040160405180910390fd5b5092915050565b341561107c5760405163b398979f60e01b815260040160405180910390fd5b5f5f5f835160208501865af49392505050565b6040513d81523d5f602083013e3d602001810160405290565b6040513d5f823e3d81fd5b604051806101400160405280600a905b604080516060810182525f80825260208083018290529282015282525f19909201910181611e075790505090565b5f5f5f60608486031215611e47575f5ffd5b505081359360208301359350604090920135919050565b80356001600160a01b0381168114611e74575f5ffd5b919050565b5f60208284031215611e89575f5ffd5b611e9282611e5e565b9392505050565b5f60208284031215611ea9575f5ffd5b5035919050565b5f5f60408385031215611ec1575f5ffd5b611eca83611e5e565b9150611ed860208401611e5e565b90509250929050565b5f5f5f5f5f60a08688031215611ef5575f5ffd5b85359450602086013563ffffffff81168114611f0f575f5ffd5b94979496505050506040830135926060810135926080909101359150565b634e487b7160e01b5f52604160045260245ffd5b5f5f60408385031215611f52575f5ffd5b611f5b83611e5e565b915060208301356001600160401b03811115611f75575f5ffd5b8301601f81018513611f85575f5ffd5b80356001600160401b03811115611f9e57611f9e611f2d565b604051601f8201601f19908116603f011681016001600160401b0381118282101715611fcc57611fcc611f2d565b604052818152828201602001871015611fe3575f5ffd5b816020840160208301375f602083830101528093505050509250929050565b6103c0810181835f5b600a81101561205257815180516001600160a01b031684526020808201518186015260409182015163ffffffff16918501919091526060909301929091019060010161200b565b50505092915050565b602081525f82518060208401528060208501604085015e5f604082850101526040601f19601f83011684010191505092915050565b5f602082840312156120a0575f5ffd5b813560ff81168114611e92575f5ffd5b5f602082840312156120c0575f5ffd5b81518015158114611e92575f5ffd5b634e487b7160e01b5f52601160045260245ffd5b5f600182016120f4576120f46120cf565b5060010190565b80820180821115611396576113966120cf565b63ffffffff8281168282160390811115611396576113966120cf565b5f8261214457634e487b7160e01b5f52601260045260245ffd5b500490565b8082028115828204841417611396576113966120cf565b81810381811115611396576113966120cf565b5f81612181576121816120cf565b505f190190565b634e487b7160e01b5f52603260045260245ffd5b5f602082840312156121ac575f5ffd5b505191905056fe360894a13ba1a3210667c828492db98dca3e2076cc3735a920a3ca505d382bbca264697066735822122050541e17678216a6774df4081a0b8bda07ec39673f810736112502794ccb639364736f6c634300081c0033",
  "linkReferences": {},
  "deployedLinkReferences": {},
  "immutableReferences": {
    "867": [
      {
        "length": 32,
        "start": 6346
      },
      {
        "length": 32,
        "start": 6387
      },
      {
        "length": 32,
        "start": 6711
      }
    ]
  },
  "inputSourceName": "project/contracts/Game2048.sol",
  "buildInfoId": "solc-0_8_28-82c4d066e412f195d5de7d7a86526907b81c460f"
}