{
  "_format": "hh3-artifact-1",
  "contractName": "Game2048",
  "sourceName": "contracts/Game2048.sol",
  "abi": [
    {
      "inputs": [],
      "stateMutability": "nonpayable",
      "type": "constructor"
    },
    {
      "inputs": [
        {
          "internalType": "address",
          "name": "target",
          "type": "address"
        }
      ],
      "name": "AddressEmptyCode",
      "type": "error"
    },
    {
      "inputs": [
        {
          "internalType": "address",
          "name": "implementation",
          "type": "address"
        }
      ],
      "name": "ERC1967InvalidImplementation",
      "type": "error"
    },
    {
      "inputs": [],
      "name": "ERC1967NonPayable",
      "type": "error"
    },
    {
      "inputs": [],
      "name": "FailedCall",
      "type": "error"
    },
    {
      "inputs": [],
      "name": "InvalidInitialization",
      "type": "error"
    },
    {
      "inputs": [],
      "name": "InvalidMoveCount",
      "type": "error"
    },
    {
      "inputs": [],
      "name": "InvalidSeed",
      "type": "error"
    },
    {
      "inputs": [],
      "name": "InvalidTileValue",
      "type": "error"
    },
    {
      "inputs": [],
      "name": "NoActiveSession",
      "type": "error"
    },
    {
      "inputs": [],
      "name": "NotInitializing",
      "type": "error"
    },
    {
      "inputs": [],
      "name": "NotVerifiedHuman",
      "type": "error"
    },
    {
      "inputs": [
        {
          "internalType": "address",
          "name": "owner",
          "type": "address"
        }
      ],
      "name": "OwnableInvalidOwner",
      "type": "error"
    },
    {
      "inputs": [
        {
          "internalType": "address",
          "name": "account",
          "type": "address"
        }
      ],
      "name": "OwnableUnauthorizedAccount",
      "type": "error"
    },
    {
      "inputs": [],
      "name": "SessionAlreadyActive",
      "type": "error"
    },
    {
      "inputs": [],
      "name": "SessionExpired",
      "type": "error"
    },
    {
      "inputs": [],
      "name": "UUPSUnauthorizedCallContext",
      "type": "error"
    },
    {
      "inputs": [
        {
          "internalType": "bytes32",
          "name": "slot",
          "type": "bytes32"
        }
      ],
      "name": "UUPSUnsupportedProxiableUUID",
      "type": "error"
    },
    {
      "anonymous": false,
      "inputs": [
        {
          "indexed": false,
          "internalType": "uint64",
          "name": "version",
          "type": "uint64"
        }
      ],
      "name": "Initialized",
      "type": "event"
    },
    {
      "anonymous": false,
      "inputs": [
        {
          "indexed": true,
          "internalType": "address",
          "name": "previousOwner",
          "type": "address"
        },
        {
          "indexed": true,
          "internalType": "address",
          "name": "newOwner",
          "type": "address"
        }
      ],
      "name": "OwnershipTransferred",
      "type": "event"
    },
    {
      "anonymous": false,
      "inputs": [
        {
          "indexed": true,
          "internalType": "address",
          "name": "player",
          "type": "address"
        },
        {
          "indexed": false,
          "internalType": "uint32",
          "name": "milestone",
          "type": "uint32"
        },
        {
          "indexed": false,
          "internalType": "uint256",
          "name": "amount",
          "type": "uint256"
        }
      ],
      "name": "RewardPaid",
      "type": "event"
    },
    {
      "anonymous": false,
      "inputs": [
        {
          "indexed": true,
          "internalType": "address",
          "name": "player",
          "type": "address"
        },
        {
          "indexed": false,
          "internalType": "uint256",
          "name": "score",
          "type": "uint256"
        },
        {
          "indexed": false,
          "internalType": "uint32",
          "name": "highestTile",
          "type": "uint32"
        }
      ],
      "name": "ScoreSubmitted",
      "type": "event"
    },
    {
      "anonymous": false,
      "inputs": [
        {
          "indexed": true,
          "internalType": "address",
          "name": "player",
          "type": "address"
        }
      ],
      "name": "SessionStarted",
      "type": "event"
    },
    {
      "anonymous": false,
      "inputs": [
        {
          "indexed": true,
          "internalType": "address",
          "name": "implementation",
          "type": "address"
        }
      ],
      "name": "Upgraded",
      "type": "event"
    },
    {
      "inputs": [],
      "name": "REWARD_1024",
      "outputs": [
        {
          "internalType": "uint256",
          "name": "",
          "type": "uint256"
        }
      ],
      "stateMutability": "view",
      "type": "function"
    },
    {
      "inputs": [],
      "name": "REWARD_2048",
      "outputs": [
        {
          "internalType": "uint256",
          "name": "",
          "type": "uint256"
        }
      ],
      "stateMutability": "view",
      "type": "function"
    },
    {
      "inputs": [],
      "name": "REWARD_256",
      "outputs": [
        {
          "internalType": "uint256",
          "name": "",
          "type": "uint256"
        }
      ],
      "stateMutability": "view",
      "type": "function"
    },
    {
      "inputs": [],
      "name": "REWARD_512",
      "outputs": [
        {
          "internalType": "uint256",
          "name": "",
          "type": "uint256"
        }
      ],
      "stateMutability": "view",
      "type": "function"
    },
    {
      "inputs": [],
      "name": "SESSION_TIMEOUT",
      "outputs": [
        {
          "internalType": "uint256",
          "name": "",
          "type": "uint256"
        }
      ],
      "stateMutability": "view",
      "type": "function"
    },
    {
      "inputs": [],
      "name": "UPGRADE_INTERFACE_VERSION",
      "outputs": [
        {
          "internalType": "string",
          "name": "",
          "type": "string"
        }
      ],
      "stateMutability": "view",
      "type": "function"
    },
    {
      "inputs": [
        {
          "internalType": "address",
          "name": "",
          "type": "address"
        }
      ],
      "name": "bestScore",
      "outputs": [
        {
          "internalType": "uint256",
          "name": "",
          "type": "uint256"
        }
      ],
      "stateMutability": "view",
      "type": "function"
    },
    {
      "inputs": [
        {
          "internalType": "address",
          "name": "",
          "type": "address"
        }
      ],
      "name": "bestTile",
      "outputs": [
        {
          "internalType": "uint32",
          "name": "",
          "type": "uint32"
        }
      ],
      "stateMutability": "view",
      "type": "function"
    },
    {
      "inputs": [
        {
          "internalType": "address",
          "name": "",
          "type": "address"
        }
      ],
      "name": "claimedMilestones",
      "outputs": [
        {
          "internalType": "uint8",
          "name": "",
          "type": "uint8"
        }
      ],
      "stateMutability": "view",
      "type": "function"
    },
    {
      "inputs": [
        {
          "internalType": "address",
          "name": "player",
          "type": "address"
        }
      ],
      "name": "expireSession",
      "outputs": [],
      "stateMutability": "nonpayable",
      "type": "function"
    },
    {
      "inputs": [
        {
          "internalType": "uint256",
          "name": "amount",
          "type": "uint256"
        }
      ],
      "name": "fundTreasury",
      "outputs": [],
      "stateMutability": "nonpayable",
      "type": "function"
    },
    {
      "inputs": [],
      "name": "gDollar",
      "outputs": [
        {
          "internalType": "contract IERC20",
          "name": "",
          "type": "address"
        }
      ],
      "stateMutability": "view",
      "type": "function"
    },
    {
      "inputs": [],
      "name": "getLeaderboard",
      "outputs": [
        {
          "components": [
            {
              "internalType": "address",
              "name": "player",
              "type": "address"
            },
            {
              "internalType": "uint256",
              "name": "score",
              "type": "uint256"
            },
            {
              "internalType": "uint32",
              "name": "highestTile",
              "type": "uint32"
            }
          ],
          "internalType": "struct Game2048.LeaderboardEntry[10]",
          "name": "",
          "type": "tuple[10]"
        }
      ],
      "stateMutability": "view",
      "type": "function"
    },
    {
      "inputs": [
        {
          "internalType": "address",
          "name": "player",
          "type": "address"
        }
      ],
      "name": "getSession",
      "outputs": [
        {
          "components": [
            {
              "internalType": "bool",
              "name": "active",
              "type": "bool"
            },
            {
              "internalType": "uint64",
              "name": "startTime",
              "type": "uint64"
            },
            {
              "internalType": "bytes32",
              "name": "seedHash",
              "type": "bytes32"
            }
          ],
          "internalType": "struct Game2048.Session",
          "name": "",
          "type": "tuple"
        }
      ],
      "stateMutability": "view",
      "type": "function"
    },
    {
      "inputs": [],
      "name": "identity",
      "outputs": [
        {
          "internalType": "contract IIdentity",
          "name": "",
          "type": "address"
        }
      ],
      "stateMutability": "view",
      "type": "function"
    },
    {
      "inputs": [
        {
          "internalType": "address",
          "name": "_gDollar",
          "type": "address"
        },
        {
          "internalType": "address",
          "name": "_identity",
          "type": "address"
        }
      ],
      "name": "initialize",
      "outputs": [],
      "stateMutability": "nonpayable",
      "type": "function"
    },
    {
      "inputs": [],
      "name": "owner",
      "outputs": [
        {
          "internalType": "address",
          "name": "",
          "type": "address"
        }
      ],
      "stateMutability": "view",
      "type": "function"
    },
    {
      "inputs": [],
      "name": "proxiableUUID",
      "outputs": [
        {
          "internalType": "bytes32",
          "name": "",
          "type": "bytes32"
        }
      ],
      "stateMutability": "view",
      "type": "function"
    },
    {
      "inputs": [],
      "name": "renounceOwnership",
      "outputs": [],
      "stateMutability": "nonpayable",
      "type": "function"
    },
    {
      "inputs": [
        {
          "internalType": "address",
          "name": "",
          "type": "address"
        }
      ],
      "name": "sessions",
      "outputs": [
        {
          "internalType": "bool",
          "name": "active",
          "type": "bool"
        },
        {
          "internalType": "uint64",
          "name": "startTime",
          "type": "uint64"
        },
        {
          "internalType": "bytes32",
          "name": "seedHash",
          "type": "bytes32"
        }
      ],
      "stateMutability": "view",
      "type": "function"
    },
    {
      "inputs": [
        {
          "internalType": "bytes32",
          "name": "seedHash",
          "type": "bytes32"
        }
      ],
      "name": "startSession",
      "outputs": [],
      "stateMutability": "nonpayable",
      "type": "function"
    },
    {
      "inputs": [
        {
          "internalType": "uint256",
          "name": "score",
          "type": "uint256"
        },
        {
          "internalType": "uint32",
          "name": "highestTile",
          "type": "uint32"
        },
        {
          "internalType": "uint256",
          "name": "moveCount",
          "type": "uint256"
        },
        {
          "internalType": "bytes32",
          "name": "seed",
          "type": "bytes32"
        }
      ],
      "name": "submitScore",
      "outputs": [],
      "stateMutability": "nonpayable",
      "type": "function"
    },
    {
      "inputs": [
        {
          "internalType": "address",
          "name": "newOwner",
          "type": "address"
        }
      ],
      "name": "transferOwnership",
      "outputs": [],
      "stateMutability": "nonpayable",
      "type": "function"
    },
    {
      "inputs": [
        {
          "internalType": "address",
          "name": "newImplementation",
          "type": "address"
        },
        {
          "internalType": "bytes",
          "name": "data",
          "type": "bytes"
        }
      ],
      "name": "upgradeToAndCall",
      "outputs": [],
      "stateMutability": "payable",
      "type": "function"
    },
    {
      "inputs": [
        {
          "internalType": "uint256",
          "name": "amount",
          "type": "uint256"
        }
      ],
      "name": "withdrawTreasury",
      "outputs": [],
      "stateMutability": "nonpayable",
      "type": "function"
    }
  ],
  "bytecode": "0x60a060405230608052348015610013575f5ffd5b5061001c610021565b6100d3565b7ff0c57e16840df040f15088dc2f81fe391c3923bec73e23a9662efc9c229c6a00805468010000000000000000900460ff16156100715760405163f92ee8a960e01b815260040160405180910390fd5b80546001600160401b03908116146100d05780546001600160401b0319166001600160401b0390811782556040519081527fc7f505b2f371ae2175ee4913f4499e1f2633a7b5936321eed1cdaeb6115181d29060200160405180910390a15b50565b6080516118c76100f95f395f8181610d9001528181610db90152610efd01526118c75ff3fe608060405260043610610161575f3560e01c8063715018a6116100cd578063d20ef3be11610087578063e00a5e1d11610062578063e00a5e1d14610527578063f2fde38b14610546578063f6471f4b14610565578063ff9c693f14610584575f5ffd5b8063d20ef3be146104c1578063d4780166146104e0578063dc0c695f146104fc575f5ffd5b8063715018a61461035c5780638c8e13b9146103705780638da5cb5b1461041b5780639ded4f3f1461042f578063ad3cb1cc1461046f578063c083ad99146104ac575f5ffd5b8063431a1b971161011e578063431a1b9714610244578063485cc955146102af5780634f1ef286146102ce57806352d1902d146102e157806360637c6d146102f55780636d763a6e1461033b575f5ffd5b80630f9791991461016557806311f1fc9914610193578063126717c2146101b457806317716ef2146101d3578063220f3267146102095780632c159a1a14610225575b5f5ffd5b348015610170575f5ffd5b50610180674563918244f4000081565b6040519081526020015b60405180910390f35b34801561019e575f5ffd5b506101b26101ad3660046115bc565b61059f565b005b3480156101bf575f5ffd5b506101b26101ce3660046115bc565b610632565b3480156101de575f5ffd5b505f546101f1906001600160a01b031681565b6040516001600160a01b03909116815260200161018a565b348015610214575f5ffd5b5061018068022b1c8c1227a0000081565b348015610230575f5ffd5b506001546101f1906001600160a01b031681565b34801561024f575f5ffd5b5061028a61025e3660046115ee565b60026020525f90815260409020805460019091015460ff82169161010090046001600160401b03169083565b6040805193151584526001600160401b0390921660208401529082015260600161018a565b3480156102ba575f5ffd5b506101b26102c936600461160e565b6107c3565b6101b26102dc366004611653565b6108ea565b3480156102ec575f5ffd5b50610180610905565b348015610300575f5ffd5b5061032661030f3660046115ee565b60046020525f908152604090205463ffffffff1681565b60405163ffffffff909116815260200161018a565b348015610346575f5ffd5b5061034f610920565b60405161018a9190611714565b348015610367575f5ffd5b506101b2610997565b34801561037b575f5ffd5b506103ee61038a3660046115ee565b60408051606080820183525f80835260208084018290529284018190526001600160a01b03949094168452600282529282902082519384018352805460ff81161515855261010090046001600160401b031691840191909152600101549082015290565b604080518251151581526020808401516001600160401b031690820152918101519082015260600161018a565b348015610426575f5ffd5b506101f16109aa565b34801561043a575f5ffd5b5061045d6104493660046115ee565b60056020525f908152604090205460ff1681565b60405160ff909116815260200161018a565b34801561047a575f5ffd5b5061049f604051806040016040528060058152602001640352e302e360dc1b81525081565b60405161018a919061176d565b3480156104b7575f5ffd5b50610180611c2081565b3480156104cc575f5ffd5b506101b26104db3660046117a2565b6109d8565b3480156104eb575f5ffd5b5061018068056bc75e2d6310000081565b348015610507575f5ffd5b506101806105163660046115ee565b60036020525f908152604090205481565b348015610532575f5ffd5b506101b26105413660046115ee565b610bf1565b348015610551575f5ffd5b506101b26105603660046115ee565b610c97565b348015610570575f5ffd5b506101b261057f3660046115bc565b610cd4565b34801561058f575f5ffd5b5061018067d02ab486cedc000081565b6105a7610d18565b5f546001600160a01b031663a9059cbb6105bf6109aa565b6040516001600160e01b031960e084901b1681526001600160a01b039091166004820152602481018490526044015b6020604051808303815f875af115801561060a573d5f5f3e3d5ffd5b505050506040513d601f19601f8201168201806040525081019061062e91906117e4565b5050565b600154604051633af32abf60e01b81523360048201526001600160a01b0390911690633af32abf90602401602060405180830381865afa158015610678573d5f5f3e3d5ffd5b505050506040513d601f19601f8201168201806040525081019061069c91906117e4565b6106b9576040516329c1fbb960e01b815260040160405180910390fd5b335f908152600260205260409020805460ff1680156106f3575080546106f090611c209061010090046001600160401b0316611817565b42115b1561070157805460ff191681555b805460ff1615610724576040516327a7585d60e01b815260040160405180910390fd5b604080516060810182526001808252426001600160401b039081166020808501918252848601888152335f818152600290935287832096518754945168ffffffffffffffffff1990951690151568ffffffffffffffff0019161761010094909516939093029390931785559151939092019290925591517ff9381a73305b2f199271139d4633bc1931f1b0733936ec6ebef15d6d2f5a10089190a25050565b5f6107cc610d4a565b805490915060ff600160401b82041615906001600160401b03165f811580156107f25750825b90505f826001600160401b0316600114801561080d5750303b155b90508115801561081b575080155b156108395760405163f92ee8a960e01b815260040160405180910390fd5b845467ffffffffffffffff19166001178555831561086357845460ff60401b1916600160401b1785555b61086c33610d74565b5f80546001600160a01b03808a166001600160a01b031992831617909255600180549289169290911691909117905583156108e157845460ff60401b19168555604051600181527fc7f505b2f371ae2175ee4913f4499e1f2633a7b5936321eed1cdaeb6115181d29060200160405180910390a15b50505050505050565b6108f2610d85565b6108fb82610e29565b61062e8282610e31565b5f61090e610ef2565b505f5160206118725f395f51905f5290565b61092861157e565b6040805161014081019091526006600a5f835b8282101561098e576040805160608101825260038402860180546001600160a01b0316825260018082015460208085019190915260029092015463ffffffff16938301939093529083529201910161093b565b50505050905090565b61099f610d18565b6109a85f610f3b565b565b7f9016d09d72d40fdae2fd8ceac6b6234c7706214fd39c1cd1e609a0528c199300546001600160a01b031690565b335f908152600260205260409020805460ff16610a0857604051637ff88aad60e01b815260040160405180910390fd5b8054610a2590611c209061010090046001600160401b0316611817565b421115610a4557604051630fe82d2560e11b815260040160405180910390fd5b60018101546040805160208101859052016040516020818303038152906040528051906020012014610a8a5760405163431d3a4360e11b815260040160405180910390fd5b6001831080610a9a575061271083115b15610ab7576040516236880160e41b815260040160405180910390fd5b60028463ffffffff161080610ad45750620200008463ffffffff16115b15610af257604051634825ad7b60e11b815260040160405180910390fd5b610afd60018561182a565b841663ffffffff165f14610b2457604051634825ad7b60e11b815260040160405180910390fd5b805460ff19168155335f90815260036020526040902054851115610b5457335f9081526003602052604090208590555b335f9081526004602052604090205463ffffffff9081169085161115610b9657335f908152600460205260409020805463ffffffff191663ffffffff86161790555b6040805186815263ffffffff8616602082015233917fc6482bf53678097822eef2ac1231a252a41997d9e9899e68dea1af68f8613144910160405180910390a2610bdf84610fab565b610bea338686611107565b5050505050565b6001600160a01b0381165f908152600260205260409020805460ff16610c2a57604051637ff88aad60e01b815260040160405180910390fd5b8054610c4790611c209061010090046001600160401b0316611817565b4211610c8c5760405162461bcd60e51b815260206004820152600f60248201526e139bdd08195e1c1a5c9959081e595d608a1b60448201526064015b60405180910390fd5b805460ff1916905550565b610c9f610d18565b6001600160a01b038116610cc857604051631e4fbdf760e01b81525f6004820152602401610c83565b610cd181610f3b565b50565b610cdc610d18565b5f546040516323b872dd60e01b8152336004820152306024820152604481018390526001600160a01b03909116906323b872dd906064016105ee565b33610d216109aa565b6001600160a01b0316146109a85760405163118cdaa760e01b8152336004820152602401610c83565b5f807ff0c57e16840df040f15088dc2f81fe391c3923bec73e23a9662efc9c229c6a005b92915050565b610d7c611265565b610cd18161128a565b306001600160a01b037f0000000000000000000000000000000000000000000000000000000000000000161480610e0b57507f00000000000000000000000000000000000000000000000000000000000000006001600160a01b0316610dff5f5160206118725f395f51905f52546001600160a01b031690565b6001600160a01b031614155b156109a85760405163703e46dd60e11b815260040160405180910390fd5b610cd1610d18565b816001600160a01b03166352d1902d6040518163ffffffff1660e01b8152600401602060405180830381865afa925050508015610e8b575060408051601f3d908101601f19168201909252610e8891810190611846565b60015b610eb357604051634c9c8ce360e01b81526001600160a01b0383166004820152602401610c83565b5f5160206118725f395f51905f528114610ee357604051632a87526960e21b815260048101829052602401610c83565b610eed8383611292565b505050565b306001600160a01b037f000000000000000000000000000000000000000000000000000000000000000016146109a85760405163703e46dd60e11b815260040160405180910390fd5b7f9016d09d72d40fdae2fd8ceac6b6234c7706214fd39c1cd1e609a0528c19930080546001600160a01b031981166001600160a01b03848116918217845560405192169182907f8be0079c531659141344cd1fd0a4f28419497f9722a3daafe3b4186f6b6457e0905f90a3505050565b335f9081526005602052604090205460ff1661080063ffffffff831610801590610fd6575060088116155b1561101057335f908152600560205260409020805460ff19811660ff90911617600817905561101061080068056bc75e2d631000006112e7565b6104008263ffffffff1610158015611029575060048116155b1561106357335f908152600560205260409020805460ff19811660ff90911617600417905561106361040068022b1c8c1227a000006112e7565b6102008263ffffffff161015801561107c575060028116155b156110b557335f908152600560205260409020805460ff19811660ff9091161760021790556110b561020067d02ab486cedc00006112e7565b6101008263ffffffff16101580156110ce575060018116155b1561062e57335f908152600560205260409020805460ff19811660ff90911617600117905561062e610100674563918244f400006112e7565b5f80805b600a8160ff16101561119b575f600660ff8316600a811061112e5761112e61185d565b60030201546001600160a01b03160361114d578092506001915061119b565b60068360ff16600a81106111635761116361185d565b600302016001015460068260ff16600a81106111815761118161185d565b60030201600101541015611193578092505b60010161110b565b5080806111c4575060068260ff16600a81106111b9576111b961185d565b600302016001015484115b15610bea576040518060600160405280866001600160a01b031681526020018581526020018463ffffffff1681525060068360ff16600a81106112095761120961185d565b82516003919091029190910180546001600160a01b0319166001600160a01b03909216919091178155602082015160018201556040909101516002909101805463ffffffff191663ffffffff9092169190911790555050505050565b61126d61140c565b6109a857604051631afcd79f60e31b815260040160405180910390fd5b610c9f611265565b61129b82611425565b6040516001600160a01b038316907fbc7cd75a20ee27fd9adebab32041f755214dbc6bffa90cc0225b39da2e5c2d3b905f90a28051156112df57610eed8282611488565b61062e611528565b5f546040516370a0823160e01b815230600482015282916001600160a01b0316906370a0823190602401602060405180830381865afa15801561132c573d5f5f3e3d5ffd5b505050506040513d601f19601f820116820180604052508101906113509190611846565b1061062e575f5460405163a9059cbb60e01b8152336004820152602481018390526001600160a01b039091169063a9059cbb906044016020604051808303815f875af11580156113a2573d5f5f3e3d5ffd5b505050506040513d601f19601f820116820180604052508101906113c691906117e4565b506040805163ffffffff841681526020810183905233917f87c5e01a5860f4876d13985efbb6a6590d65635cc4eeefe9e04df5d601826ed7910160405180910390a25050565b5f611415610d4a565b54600160401b900460ff16919050565b806001600160a01b03163b5f0361145a57604051634c9c8ce360e01b81526001600160a01b0382166004820152602401610c83565b5f5160206118725f395f51905f5280546001600160a01b0319166001600160a01b0392909216919091179055565b60605f6114958484611547565b90508080156114b657505f3d11806114b657505f846001600160a01b03163b115b156114cb576114c361155a565b915050610d6e565b80156114f557604051639996b31560e01b81526001600160a01b0385166004820152602401610c83565b3d1561150857611503611573565b611521565b60405163d6bda27560e01b815260040160405180910390fd5b5092915050565b34156109a85760405163b398979f60e01b815260040160405180910390fd5b5f5f5f835160208501865af49392505050565b6040513d81523d5f602083013e3d602001810160405290565b6040513d5f823e3d81fd5b604051806101400160405280600a905b604080516060810182525f80825260208083018290529282015282525f1990920191018161158e5790505090565b5f602082840312156115cc575f5ffd5b5035919050565b80356001600160a01b03811681146115e9575f5ffd5b919050565b5f602082840312156115fe575f5ffd5b611607826115d3565b9392505050565b5f5f6040838503121561161f575f5ffd5b611628836115d3565b9150611636602084016115d3565b90509250929050565b634e487b7160e01b5f52604160045260245ffd5b5f5f60408385031215611664575f5ffd5b61166d836115d3565b915060208301356001600160401b03811115611687575f5ffd5b8301601f81018513611697575f5ffd5b80356001600160401b038111156116b0576116b061163f565b604051601f8201601f19908116603f011681016001600160401b03811182821017156116de576116de61163f565b6040528181528282016020018710156116f5575f5ffd5b816020840160208301375f602083830101528093505050509250929050565b6103c0810181835f5b600a81101561176457815180516001600160a01b031684526020808201518186015260409182015163ffffffff16918501919091526060909301929091019060010161171d565b50505092915050565b602081525f82518060208401528060208501604085015e5f604082850101526040601f19601f83011684010191505092915050565b5f5f5f5f608085870312156117b5575f5ffd5b84359350602085013563ffffffff811681146117cf575f5ffd5b93969395505050506040820135916060013590565b5f602082840312156117f4575f5ffd5b81518015158114611607575f5ffd5b634e487b7160e01b5f52601160045260245ffd5b80820180821115610d6e57610d6e611803565b63ffffffff8281168282160390811115610d6e57610d6e611803565b5f60208284031215611856575f5ffd5b5051919050565b634e487b7160e01b5f52603260045260245ffdfe360894a13ba1a3210667c828492db98dca3e2076cc3735a920a3ca505d382bbca26469706673582212205fad77cbc3b6bb3b835413b955c285927789c7d90564de5fba8d7678db5a2dc164736f6c634300081c0033",
  "linkReferences": {},
  "deployedLinkReferences": {},
  "immutableReferences": {
    "867": [
      {
        "length": 32,
        "start": 3472
      },
      {
        "length": 32,
        "start": 3513
      },
      {
        "length": 32,
        "start": 3837
      }
    ]
  },
  "inputSourceName": "project/contracts/Game2048.sol",
  "buildInfoId": "solc-0_8_28-a12ea97e65c518754bcbc7f156328f31d8ffa795"
}