{
  "_format": "hh3-artifact-1",
  "contractName": "Game2048",
  "sourceName": "contracts/Game2048.sol",
  "abi": [
    {
      "inputs": [
        {
          "internalType": "address",
          "name": "_gDollar",
          "type": "address"
        },
        {
          "internalType": "address",
          "name": "_identity",
          "type": "address"
        }
      ],
      "stateMutability": "nonpayable",
      "type": "constructor"
    },
    {
      "inputs": [],
      "name": "InvalidMoveCount",
      "type": "error"
    },
    {
      "inputs": [],
      "name": "InvalidSeed",
      "type": "error"
    },
    {
      "inputs": [],
      "name": "InvalidTileValue",
      "type": "error"
    },
    {
      "inputs": [],
      "name": "NoActiveSession",
      "type": "error"
    },
    {
      "inputs": [],
      "name": "NotVerifiedHuman",
      "type": "error"
    },
    {
      "inputs": [],
      "name": "SessionAlreadyActive",
      "type": "error"
    },
    {
      "inputs": [],
      "name": "SessionExpired",
      "type": "error"
    },
    {
      "anonymous": false,
      "inputs": [
        {
          "indexed": true,
          "internalType": "address",
          "name": "player",
          "type": "address"
        },
        {
          "indexed": false,
          "internalType": "uint32",
          "name": "milestone",
          "type": "uint32"
        },
        {
          "indexed": false,
          "internalType": "uint256",
          "name": "amount",
          "type": "uint256"
        }
      ],
      "name": "RewardPaid",
      "type": "event"
    },
    {
      "anonymous": false,
      "inputs": [
        {
          "indexed": true,
          "internalType": "address",
          "name": "player",
          "type": "address"
        },
        {
          "indexed": false,
          "internalType": "uint256",
          "name": "score",
          "type": "uint256"
        },
        {
          "indexed": false,
          "internalType": "uint32",
          "name": "highestTile",
          "type": "uint32"
        }
      ],
      "name": "ScoreSubmitted",
      "type": "event"
    },
    {
      "anonymous": false,
      "inputs": [
        {
          "indexed": true,
          "internalType": "address",
          "name": "player",
          "type": "address"
        }
      ],
      "name": "SessionStarted",
      "type": "event"
    },
    {
      "inputs": [],
      "name": "REWARD_1024",
      "outputs": [
        {
          "internalType": "uint256",
          "name": "",
          "type": "uint256"
        }
      ],
      "stateMutability": "view",
      "type": "function"
    },
    {
      "inputs": [],
      "name": "REWARD_2048",
      "outputs": [
        {
          "internalType": "uint256",
          "name": "",
          "type": "uint256"
        }
      ],
      "stateMutability": "view",
      "type": "function"
    },
    {
      "inputs": [],
      "name": "REWARD_256",
      "outputs": [
        {
          "internalType": "uint256",
          "name": "",
          "type": "uint256"
        }
      ],
      "stateMutability": "view",
      "type": "function"
    },
    {
      "inputs": [],
      "name": "REWARD_512",
      "outputs": [
        {
          "internalType": "uint256",
          "name": "",
          "type": "uint256"
        }
      ],
      "stateMutability": "view",
      "type": "function"
    },
    {
      "inputs": [],
      "name": "SESSION_TIMEOUT",
      "outputs": [
        {
          "internalType": "uint256",
          "name": "",
          "type": "uint256"
        }
      ],
      "stateMutability": "view",
      "type": "function"
    },
    {
      "inputs": [
        {
          "internalType": "address",
          "name": "",
          "type": "address"
        }
      ],
      "name": "bestScore",
      "outputs": [
        {
          "internalType": "uint256",
          "name": "",
          "type": "uint256"
        }
      ],
      "stateMutability": "view",
      "type": "function"
    },
    {
      "inputs": [
        {
          "internalType": "address",
          "name": "",
          "type": "address"
        }
      ],
      "name": "bestTile",
      "outputs": [
        {
          "internalType": "uint32",
          "name": "",
          "type": "uint32"
        }
      ],
      "stateMutability": "view",
      "type": "function"
    },
    {
      "inputs": [
        {
          "internalType": "address",
          "name": "",
          "type": "address"
        }
      ],
      "name": "claimedMilestones",
      "outputs": [
        {
          "internalType": "uint8",
          "name": "",
          "type": "uint8"
        }
      ],
      "stateMutability": "view",
      "type": "function"
    },
    {
      "inputs": [
        {
          "internalType": "address",
          "name": "player",
          "type": "address"
        }
      ],
      "name": "expireSession",
      "outputs": [],
      "stateMutability": "nonpayable",
      "type": "function"
    },
    {
      "inputs": [
        {
          "internalType": "uint256",
          "name": "amount",
          "type": "uint256"
        }
      ],
      "name": "fundTreasury",
      "outputs": [],
      "stateMutability": "nonpayable",
      "type": "function"
    },
    {
      "inputs": [],
      "name": "gDollar",
      "outputs": [
        {
          "internalType": "contract IERC20",
          "name": "",
          "type": "address"
        }
      ],
      "stateMutability": "view",
      "type": "function"
    },
    {
      "inputs": [],
      "name": "getLeaderboard",
      "outputs": [
        {
          "components": [
            {
              "internalType": "address",
              "name": "player",
              "type": "address"
            },
            {
              "internalType": "uint256",
              "name": "score",
              "type": "uint256"
            },
            {
              "internalType": "uint32",
              "name": "highestTile",
              "type": "uint32"
            }
          ],
          "internalType": "struct Game2048.LeaderboardEntry[10]",
          "name": "",
          "type": "tuple[10]"
        }
      ],
      "stateMutability": "view",
      "type": "function"
    },
    {
      "inputs": [
        {
          "internalType": "address",
          "name": "player",
          "type": "address"
        }
      ],
      "name": "getSession",
      "outputs": [
        {
          "components": [
            {
              "internalType": "bool",
              "name": "active",
              "type": "bool"
            },
            {
              "internalType": "uint64",
              "name": "startTime",
              "type": "uint64"
            },
            {
              "internalType": "bytes32",
              "name": "seedHash",
              "type": "bytes32"
            }
          ],
          "internalType": "struct Game2048.Session",
          "name": "",
          "type": "tuple"
        }
      ],
      "stateMutability": "view",
      "type": "function"
    },
    {
      "inputs": [],
      "name": "identity",
      "outputs": [
        {
          "internalType": "contract IIdentity",
          "name": "",
          "type": "address"
        }
      ],
      "stateMutability": "view",
      "type": "function"
    },
    {
      "inputs": [],
      "name": "owner",
      "outputs": [
        {
          "internalType": "address",
          "name": "",
          "type": "address"
        }
      ],
      "stateMutability": "view",
      "type": "function"
    },
    {
      "inputs": [
        {
          "internalType": "address",
          "name": "",
          "type": "address"
        }
      ],
      "name": "sessions",
      "outputs": [
        {
          "internalType": "bool",
          "name": "active",
          "type": "bool"
        },
        {
          "internalType": "uint64",
          "name": "startTime",
          "type": "uint64"
        },
        {
          "internalType": "bytes32",
          "name": "seedHash",
          "type": "bytes32"
        }
      ],
      "stateMutability": "view",
      "type": "function"
    },
    {
      "inputs": [
        {
          "internalType": "bytes32",
          "name": "seedHash",
          "type": "bytes32"
        }
      ],
      "name": "startSession",
      "outputs": [],
      "stateMutability": "nonpayable",
      "type": "function"
    },
    {
      "inputs": [
        {
          "internalType": "uint256",
          "name": "score",
          "type": "uint256"
        },
        {
          "internalType": "uint32",
          "name": "highestTile",
          "type": "uint32"
        },
        {
          "internalType": "uint256",
          "name": "moveCount",
          "type": "uint256"
        },
        {
          "internalType": "bytes32",
          "name": "seed",
          "type": "bytes32"
        }
      ],
      "name": "submitScore",
      "outputs": [],
      "stateMutability": "nonpayable",
      "type": "function"
    },
    {
      "inputs": [
        {
          "internalType": "address",
          "name": "newOwner",
          "type": "address"
        }
      ],
      "name": "transferOwnership",
      "outputs": [],
      "stateMutability": "nonpayable",
      "type": "function"
    },
    {
      "inputs": [
        {
          "internalType": "uint256",
          "name": "amount",
          "type": "uint256"
        }
      ],
      "name": "withdrawTreasury",
      "outputs": [],
      "stateMutability": "nonpayable",
      "type": "function"
    }
  ],
  "bytecode": "0x60c060405234801561000f575f5ffd5b506040516111df3803806111df83398101604081905261002e91610071565b6001600160a01b039182166080521660a0525f80546001600160a01b031916331790556100a2565b80516001600160a01b038116811461006c575f5ffd5b919050565b5f5f60408385031215610082575f5ffd5b61008b83610056565b915061009960208401610056565b90509250929050565b60805160a0516110f96100e65f395f81816101c901526104f501525f818161017a0152818161046f01528181610a9b01528181610da60152610e3801526110f95ff3fe608060405234801561000f575f5ffd5b5060043610610127575f3560e01c80638da5cb5b116100a9578063dc0c695f1161006e578063dc0c695f146103ae578063e00a5e1d146103cd578063f2fde38b146103e0578063f6471f4b146103f3578063ff9c693f14610406575f5ffd5b80638da5cb5b1461033c5780639ded4f3f1461034e578063c083ad9914610382578063d20ef3be1461038b578063d47801661461039e575f5ffd5b80632c159a1a116100ef5780632c159a1a146101c4578063431a1b97146101eb57806360637c6d1461024c5780636d763a6e146102865780638c8e13b91461029b575f5ffd5b80630f9791991461012b57806311f1fc991461014d578063126717c21461016257806317716ef214610175578063220f3267146101b4575b5f5ffd5b61013a674563918244f4000081565b6040519081526020015b60405180910390f35b61016061015b366004610f2e565b610415565b005b610160610170366004610f2e565b6104e0565b61019c7f000000000000000000000000000000000000000000000000000000000000000081565b6040516001600160a01b039091168152602001610144565b61013a68022b1c8c1227a0000081565b61019c7f000000000000000000000000000000000000000000000000000000000000000081565b6102266101f9366004610f45565b600160208190525f9182526040909120805491015460ff821691610100900467ffffffffffffffff169083565b60408051931515845267ffffffffffffffff909216602084015290820152606001610144565b61027161025a366004610f45565b60036020525f908152604090205463ffffffff1681565b60405163ffffffff9091168152602001610144565b61028e61068e565b6040516101449190610f72565b61030e6102a9366004610f45565b60408051606080820183525f80835260208084018290529284018190526001600160a01b0394909416845260018083529383902083519182018452805460ff811615158352610100900467ffffffffffffffff16928201929092529201549082015290565b6040805182511515815260208084015167ffffffffffffffff16908201529181015190820152606001610144565b5f5461019c906001600160a01b031681565b61037061035c366004610f45565b60046020525f908152604090205460ff1681565b60405160ff9091168152602001610144565b61013a611c2081565b610160610399366004610fcb565b610705565b61013a68056bc75e2d6310000081565b61013a6103bc366004610f45565b60026020525f908152604090205481565b6101606103db366004610f45565b61091f565b6101606103ee366004610f45565b6109c1565b610160610401366004610f2e565b610a50565b61013a67d02ab486cedc000081565b5f546001600160a01b031633146104475760405162461bcd60e51b815260040161043e9061100d565b60405180910390fd5b5f5460405163a9059cbb60e01b81526001600160a01b039182166004820152602481018390527f00000000000000000000000000000000000000000000000000000000000000009091169063a9059cbb906044015b6020604051808303815f875af11580156104b8573d5f5f3e3d5ffd5b505050506040513d601f19601f820116820180604052508101906104dc9190611030565b5050565b604051633af32abf60e01b81523360048201527f00000000000000000000000000000000000000000000000000000000000000006001600160a01b031690633af32abf90602401602060405180830381865afa158015610542573d5f5f3e3d5ffd5b505050506040513d601f19601f820116820180604052508101906105669190611030565b610583576040516329c1fbb960e01b815260040160405180910390fd5b335f908152600160205260409020805460ff1680156105be575080546105bb90611c2090610100900467ffffffffffffffff16611063565b42115b156105cc57805460ff191681555b805460ff16156105ef576040516327a7585d60e01b815260040160405180910390fd5b6040805160608101825260018082524267ffffffffffffffff9081166020808501918252848601888152335f8181529286905287832096518754945168ffffffffffffffffff1990951690151568ffffffffffffffff0019161761010094909516939093029390931785559151939092019290925591517ff9381a73305b2f199271139d4633bc1931f1b0733936ec6ebef15d6d2f5a10089190a25050565b610696610ef0565b6040805161014081019091526005600a5f835b828210156106fc576040805160608101825260038402860180546001600160a01b0316825260018082015460208085019190915260029092015463ffffffff1693830193909352908352920191016106a9565b50505050905090565b335f908152600160205260409020805460ff1661073557604051637ff88aad60e01b815260040160405180910390fd5b805461075390611c2090610100900467ffffffffffffffff16611063565b42111561077357604051630fe82d2560e11b815260040160405180910390fd5b600181015460408051602081018590520160405160208183030381529060405280519060200120146107b85760405163431d3a4360e11b815260040160405180910390fd5b60018310806107c8575061271083115b156107e5576040516236880160e41b815260040160405180910390fd5b60028463ffffffff1610806108025750620200008463ffffffff16115b1561082057604051634825ad7b60e11b815260040160405180910390fd5b61082b60018561107c565b841663ffffffff165f1461085257604051634825ad7b60e11b815260040160405180910390fd5b805460ff19168155335f9081526002602052604090205485111561088257335f9081526002602052604090208590555b335f9081526003602052604090205463ffffffff90811690851611156108c457335f908152600360205260409020805463ffffffff191663ffffffff86161790555b6040805186815263ffffffff8616602082015233917fc6482bf53678097822eef2ac1231a252a41997d9e9899e68dea1af68f8613144910160405180910390a261090d84610ad2565b610918338686610c31565b5050505050565b6001600160a01b0381165f908152600160205260409020805460ff1661095857604051637ff88aad60e01b815260040160405180910390fd5b805461097690611c2090610100900467ffffffffffffffff16611063565b42116109b65760405162461bcd60e51b815260206004820152600f60248201526e139bdd08195e1c1a5c9959081e595d608a1b604482015260640161043e565b805460ff1916905550565b5f546001600160a01b031633146109ea5760405162461bcd60e51b815260040161043e9061100d565b6001600160a01b038116610a2f5760405162461bcd60e51b815260206004820152600c60248201526b5a65726f206164647265737360a01b604482015260640161043e565b5f80546001600160a01b0319166001600160a01b0392909216919091179055565b5f546001600160a01b03163314610a795760405162461bcd60e51b815260040161043e9061100d565b6040516323b872dd60e01b8152336004820152306024820152604481018290527f00000000000000000000000000000000000000000000000000000000000000006001600160a01b0316906323b872dd9060640161049c565b335f9081526004602052604090205460ff1661080063ffffffff831610801590610afd575060088116155b15610b3757335f908152600460205260409020805460ff19811660ff909116176008179055610b3761080068056bc75e2d63100000610d8f565b6104008263ffffffff1610158015610b50575060048116155b15610b8d57335f908152600460208190526040909120805460ff19811660ff909116179091179055610b8d61040068022b1c8c1227a00000610d8f565b6102008263ffffffff1610158015610ba6575060028116155b15610bdf57335f908152600460205260409020805460ff19811660ff909116176002179055610bdf61020067d02ab486cedc0000610d8f565b6101008263ffffffff1610158015610bf8575060018116155b156104dc57335f908152600460205260409020805460ff19811660ff9091161760011790556104dc610100674563918244f40000610d8f565b5f80805b600a8160ff161015610cc5575f600560ff8316600a8110610c5857610c58611098565b60030201546001600160a01b031603610c775780925060019150610cc5565b60058360ff16600a8110610c8d57610c8d611098565b600302016001015460058260ff16600a8110610cab57610cab611098565b60030201600101541015610cbd578092505b600101610c35565b508080610cee575060058260ff16600a8110610ce357610ce3611098565b600302016001015484115b15610918576040518060600160405280866001600160a01b031681526020018581526020018463ffffffff1681525060058360ff16600a8110610d3357610d33611098565b82516003919091029190910180546001600160a01b0319166001600160a01b03909216919091178155602082015160018201556040909101516002909101805463ffffffff191663ffffffff9092169190911790555050505050565b6040516370a0823160e01b815230600482015281907f00000000000000000000000000000000000000000000000000000000000000006001600160a01b0316906370a0823190602401602060405180830381865afa158015610df3573d5f5f3e3d5ffd5b505050506040513d601f19601f82011682018060405250810190610e1791906110ac565b106104dc5760405163a9059cbb60e01b8152336004820152602481018290527f00000000000000000000000000000000000000000000000000000000000000006001600160a01b03169063a9059cbb906044016020604051808303815f875af1158015610e86573d5f5f3e3d5ffd5b505050506040513d601f19601f82011682018060405250810190610eaa9190611030565b506040805163ffffffff841681526020810183905233917f87c5e01a5860f4876d13985efbb6a6590d65635cc4eeefe9e04df5d601826ed7910160405180910390a25050565b604051806101400160405280600a905b604080516060810182525f80825260208083018290529282015282525f19909201910181610f005790505090565b5f60208284031215610f3e575f5ffd5b5035919050565b5f60208284031215610f55575f5ffd5b81356001600160a01b0381168114610f6b575f5ffd5b9392505050565b6103c0810181835f5b600a811015610fc257815180516001600160a01b031684526020808201518186015260409182015163ffffffff169185019190915260609093019290910190600101610f7b565b50505092915050565b5f5f5f5f60808587031215610fde575f5ffd5b84359350602085013563ffffffff81168114610ff8575f5ffd5b93969395505050506040820135916060013590565b6020808252600990820152682737ba1037bbb732b960b91b604082015260600190565b5f60208284031215611040575f5ffd5b81518015158114610f6b575f5ffd5b634e487b7160e01b5f52601160045260245ffd5b808201808211156110765761107661104f565b92915050565b63ffffffff82811682821603908111156110765761107661104f565b634e487b7160e01b5f52603260045260245ffd5b5f602082840312156110bc575f5ffd5b505191905056fea264697066735822122025136b0cebeac04e6b6f0aaec4d5a6067f1e6488a895b6c782774e01f373596664736f6c634300081c0033",
  "linkReferences": {},
  "deployedLinkReferences": {},
  "immutableReferences": {
    "41": [
      {
        "length": 32,
        "start": 378
      },
      {
        "length": 32,
        "start": 1135
      },
      {
        "length": 32,
        "start": 2715
      },
      {
        "length": 32,
        "start": 3494
      },
      {
        "length": 32,
        "start": 3640
      }
    ],
    "44": [
      {
        "length": 32,
        "start": 457
      },
      {
        "length": 32,
        "start": 1269
      }
    ]
  },
  "inputSourceName": "project/contracts/Game2048.sol",
  "buildInfoId": "solc-0_8_28-9f08c97869223b3000397a715c1fb2a716fc4a44"
}